:100000000C942E000C944B000C944B000C944B0061
:100010000C944B000C944B000C944B000C94C205B8
:100020000C944B000C944B000C944B000C944B0024
:100030000C944B000C944B000C944B000C944B0014
:100040000C944B000C944B000C944B000C944B0004
:100050000C944B000C944B000C944B0011241FBECD
:10006000CFEFD0E1DEBFCDBF11E0A0E0B1E0ECE822
:10007000F2E102C005900D92AE31B107D9F721E04F
:10008000AEE1B1E001C01D92A533B207E1F70E94D5
:10009000F1070C9444090C9400004F925F926F9208
:1000A0007F92AF92BF92CF92DF92EF92FF920F9327
:1000B0001F93CF93DF93CDB7DEB729013A019B01A0
:1000C000AC01241935094609570989899A89AB89F0
:1000D000BC89BC01CD016A197B098C099D090E946C
:1000E000AB08A801970124193509460957090E9450
:1000F000E308CA01B9016A0D7B1D8C1D9D1DDF91AE
:10010000CF911F910F91FF90EF90DF90CF90BF9014
:10011000AF907F906F905F904F900895CF92DF9255
:10012000EF92FF92CF93C82F262F660F330B440B0D
:10013000550B2C593F4F4F4F5F4FACE3B0E00E943F
:10014000080928EC30E040E050E00E94E308690133
:100150007A0181E6C80ED11CE11CF11C6C2DCC2368
:1001600049F0619581E0CF91FF90EF90DF90CF90C3
:100170000C941A0680E00E941A060E945C05C601D3
:10018000CF91FF90EF90DF90CF900C94DE0483E04E
:100190000E9480018D3350F464E180E00E948E0063
:1001A00067E881E00E941A0680E0089560E080E040
:1001B0000E948E0061E881E00E941A0681E00895A5
:1001C00068E280E00E948E0065E781E00C941A06E8
:1001D00068ED80E00E948E0065E781E00E941A06CB
:1001E0002FEF8DE292E2215080409040E1F700C075
:1001F000000068E280E00E948E006DE881E00E94CD
:100200001A062FEF8DE292E2215080409040E1F7F4
:1002100000C0000060E080E00E948E0061E881E0A4
:100220000C941A0668E280E00E948E006DE881E07E
:100230000E941A062FEF8DE292E2215080409040FA
:10024000E1F700C0000068ED80E00E948E0065E7E5
:1002500081E00E941A062FEF8DE292E22150804049
:100260009040E1F700C0000060E080E00E948E0056
:1002700061E881E00C941A0680910101811117C098
:1002800080910201811122C080910001811101C081
:10029000089580E00E948001893CD0F384E090E0E2
:1002A00090931F0180931E0110920001089582E037
:1002B0000E948001853B20F383E090E090931F0132
:1002C00080931E01109201010C94120181E00E94A2
:1002D0008001853BC8F283E090E090931F018093FA
:1002E0001E01109202010C94E800EAE7F0E0808120
:1002F00087688083ECE7F0E08081806680830895E2
:1003000090917C00987F90937C0090917C00892B49
:1003100080937C0080917A00806480937A00809141
:100320007A0086FDFCCF8091790008958DB18F7C95
:100330008DB985E08A95F1F700006D9A759885E092
:100340008A95F1F700006C9A749885E08A95F1F728
:10035000000008956C9885E08A95F1F700006D988B
:1003600085E08A95F1F7000008956D9885E08A95FB
:10037000F1F7000065990DC06C9885E08A95F1F75A
:1003800000006C9A749885E08A95F1F70000659BEF
:10039000F3CF6C9808956C9885E08A95F1F700008A
:1003A0006C9A749885E08A95F1F7000008951F9380
:1003B000CF93DF93C82FD62F142F0E94B5010E9430
:1003C000960187E013C06D9895E09A95F1F70000CB
:1003D0006C9895E09A95F1F700006C9A749895E006
:1003E0009A95F1F70000CC0F815029F0C6FDEBCFB4
:1003F0006D9A7598E9CF6D9A759885E08A95F1F7B1
:1004000000006C9895E09A95F1F700006C9A74984A
:1004100085E08A95F1F700006D9895E09A95F1F7DF
:1004200000006C9865994BC085E08A95F1F7000053
:100430006C9A749895E09A95F1F7000088E014C0E2
:100440006D9A759895E09A95F1F700006C9895E093
:100450009A95F1F700006C9A749895E09A95F1F7E7
:100460000000DD0F815021F0D7FFEACF6D98EACF71
:100470006D9885E08A95F1F700006C9865991AC02F
:1004800095E09A95F1F700006C9A749885E08A954A
:10049000F1F70000112351F06C9895E09A95F1F76F
:1004A00000006D9885E08A95F1F70000DF91CF910B
:1004B0001F9108958FE091E00E94B904FFCF83E07F
:1004C00091E00E94B904FFCFFC016623D1F14FEF08
:1004D000460F50E04F5F5F4F480F591F908128E053
:1004E00016C06D9A759885E08A95F1F700006C98B2
:1004F00085E08A95F1F700006C9A749885E08A95FA
:10050000F1F700009081990F9083215021F097FF1F
:10051000E8CF6D98E8CF31966D9885E08A95F1F730
:1005200000006C98659918C085E08A95F1F7000085
:100530006C9A749885E08A95F1F700004E175F0772
:1005400069F66C9885E08A95F1F700006D9885E072
:100550008A95F1F7000008958CE091E00E94B904BB
:10056000FFCF0F931F93CF93DF93082FEB01142F2F
:100570000E94960187E013C06D9895E09A95F1F777
:1005800000006C9895E09A95F1F700006C9A7498C9
:1005900095E09A95F1F70000000F815029F006FDD3
:1005A000EBCF6D9A7598E9CF6D9885E08A95F1F754
:1005B00000006C9895E09A95F1F700006C9A749899
:1005C00085E08A95F1F700006D9895E09A95F1F72E
:1005D00000006C9865995AC085E08A95F1F7000093
:1005E0006C9A749895E09A95F1F700006D9885E003
:1005F0008A95F1F700001123B1F12FEF210F30E0C0
:100600002F5F3F4F2C0F3D1F98E08881880F888314
:100610006C9885E08A95F1F70000659B03C088819E
:100620008160888385E08A95F1F700006C9A749860
:1006300085E08A95F1F70000915039F76D9A759829
:1006400095E09A95F1F700006C9885E08A95F1F7AE
:1006500000006C9A749895E09A95F1F70000219645
:100660002C173D0789F685E08A95F1F700006C9814
:1006700095E09A95F1F700006D9885E08A95F1F77D
:100680000000DF91CF911F910F91089584E191E0D7
:100690000E94B904FFCFCF93DF931F92CDB7DEB78F
:1006A000498340E00E94D70161E0CE0101960E949B
:1006B00064020F90DF91CF9108951F93CF93DF9342
:1006C0001F92CDB7DEB7182F41E00E94D70141E05D
:1006D000BE016F5F7F4F812F0E94B10289810F9011
:1006E000DF91CF911F91089561E08CE10C945D033F
:1006F00063E08CE10C945D0365E08CE10C945D0398
:100700008AE08A95F1F700C0449A8AE08A95F1F769
:1007100000C044988AE08A95F1F700C00895F894E3
:1007200082B98AE08A95F1F700C0449A8AE08A95F6
:10073000F1F700C044988AE08A95F1F700C07894F8
:1007400008958F98F89482B98AE08A95F1F700C0ED
:10075000449A8AE08A95F1F700C044988AE08A9525
:10076000F1F700C0789408958F9AF89482B98AE0DE
:100770008A95F1F700C0449A8AE08A95F1F700C0A3
:1007800044988AE08A95F1F700C078940895803102
:1007900010F4623008F008956E5F6295660F660F80
:1007A000607C860F8F98F89482B98AE08A95F1F779
:1007B00000C0449A8AE08A95F1F700C044988AE024
:1007C0008A95F1F700C0789485EC8A95F1F70000DE
:1007D00008953C9A879A8FEF81B98FE19EE4019743
:1007E000F1F700C000008F98F89488E382B99AE08E
:1007F0009A95F1F700C0449AEAE0EA95F1F700C053
:100800004498FAE0FA95F1F700C07894EFE7F2E047
:100810003197F1F700C000008F98F89482B9FAE0A0
:10082000FA95F1F700C0449A9AE09A95F1F700C062
:100830004498EAE0EA95F1F700C07894EFE7F2E037
:100840003197F1F700C000008F98F89482B9FAE070
:10085000FA95F1F700C0449A9AE09A95F1F700C032
:100860004498EAE0EA95F1F700C07894EFE7F2E007
:100870003197F1F700C000008F98F89498E092B992
:10088000FAE0FA95F1F700C0449A9AE09A95F1F7E8
:1008900000C04498EAE0EA95F1F700C07894EFE7E9
:1008A000F2E03197F1F700C000008F98F89491E0E2
:1008B00092B9FAE0FA95F1F700C0449A9AE09A9555
:1008C000F1F700C04498EAE0EA95F1F700C07894A7
:1008D000EFE7FEE33197F1F700C000008F98F8943E
:1008E00096E092B9FAE0FA95F1F700C0449A9AE0DE
:1008F0009A95F1F700C04498EAE0EA95F1F700C054
:100900007894EFE7F2E03197F1F700C000008F989C
:10091000F89482B9FAE0FA95F1F700C0449A8AE0B7
:100920008A95F1F700C044989AE09A95F1F700C0D3
:100930007894EFE8F1E03197F1F700C000008F986C
:10094000F8948CE082B9FAE0FA95F1F700C0449A85
:100950008AE08A95F1F700C044989AE09A95F1F7F9
:1009600000C07894EFE8F1E03197F1F700C00000A3
:100970000895DC019C91992301F120E08F9AF8946D
:1009800092B98AE08A95F1F700C0449A9AE09A9564
:10099000F1F700C044988AE08A95F1F700C0789496
:1009A0008FE792E00197F1F700C000002F5FFD0193
:1009B000E20FF11D90819111E1CF08951F93CF9324
:1009C000DF939C01892B09F45AC045E011E0EFE068
:1009D000F7E2CAE0D0E0C901BF016F5F7F4F0E941C
:1009E000BB08662349F1E217F30770F5605D8F9A43
:1009F000F89462B9BAE0BA95F1F700C0449A2AE0D7
:100A00002A95F1F700C04498AAE0AA95F1F700C032
:100A10007894AFE7B2E01197F1F700C0000010E062
:100A20009C01CF01BE010E94CF08FB01415099F605
:100A3000DF91CF911F910895E217F30718F4111178
:100A4000EFCFD4CF1111EDCF605D8F9AF89462B9DA
:100A5000BAE0BA95F1F700C0449A8AE08A95F1F7B6
:100A600000C044989AE09A95F1F700C07894AFE7F7
:100A7000B2E01197F1F700C0000010E0D2CF8F9ADA
:100A8000F89480E382B92AE02A95F1F700C0449AED
:100A90008AE08A95F1F700C044989AE09A95F1F7B8
:100AA00000C07894AFE7B2E01197F1F700C0000002
:100AB000DF91CF911F9108958F98F89481E082B9CA
:100AC0008AE08A95F1F700C0449A9AE09A95F1F786
:100AD00000C044988AE08A95F1F700C078948FE7C7
:100AE0009EE30197F1F700C0000008955D9A5C98BD
:100AF0000895382F262F4FEF6403C001112464E6B8
:100B000070E00E94CF08311107C06093B300121645
:100B100064F45C9A5D98089567BD12161CF45E9AA1
:100B20005F9808955F9A5E9808950C947605CF9328
:100B3000DF93C3EBD0E018820E94760517BC5F9A62
:100B40005E9884B1806984B98AB1806F8AB9E0EB1C
:100B5000F0E080818866808380818260808384B5B4
:100B6000886684BD84B5826084BD8AE087BD888341
:100B7000DF91CF9108955C9A5D982C9A5F9A5E9868
:100B80002F9A08951F920F920FB60F9211242F9350
:100B90003F934F935F938F939F93EF93FF93409176
:100BA0002401542F5695852F90E021E030E001C0BC
:100BB000220F5A95EAF740FD27C0409188005091D6
:100BC0008900880F991FFC01E35DFE4F80819181B0
:100BD000840F951F909389008093880088B1282BFB
:100BE00028B9809124018F5F877080932401FF9141
:100BF000EF919F918F915F914F913F912F910F9026
:100C00000FBE0F901F901895409188005091890059
:100C1000880F991FFC01EB5DFE4F80819181840F4D
:100C2000951F909389008093880088B12095282390
:100C300028B9D7CF90E02AE0629FB00111246C530D
:100C4000764F880F991FFC01E35DFE4F718360832F
:100C50008B5D9E4F24ED30E3261B370BFC01318367
:100C600020830895ADE2B1E024EC39E011963C9385
:100C70002E93E5E2F1E080E197E291838083139681
:100C80003C932E9312979383828315963C932E93D5
:100C900014979583848317963C932E931697978386
:100CA000868387B18F6087B9E1E8F0E010828081A8
:100CB00082608083EFE6F0E08081826080837894B8
:100CC00008958CB18095881F8827881F0895282F44
:100CD00030E08E3010F080E00895F901EE58F94FC1
:100CE0000C9402098F068F069A069A06A506AA0694
:100CF000AA06AC06AC06AC06B706800680068B06D4
:100D000083B190E02950310902C0959587952A95C5
:100D1000E2F78170089583B18695817008952CB1B2
:100D200030E0A90102C0559547958A95E2F7CA01BE
:100D30008170089582B390E02F5F3F4F02C0959578
:100D400087952A95E2F7817008958CB186FB8827F4
:100D500080F9089523B1E4CF86B190E022503109A3
:100D600002C0959587952A95E2F78170089583B121
:100D700081700895282F30E08E30B0F4F901ED53E2
:100D8000F94F0C940209E406E406F006F006FE06AC
:100D9000100710070207020702071C07D506D50631
:100DA000D106611165C0219808952950310981E06B
:100DB00090E001C0880F2A95EAF794B1662309F400
:100DC0003FC0892B84B9089521E030E001C0220F93
:100DD0008A95EAF78DB16623C9F1282B2DB90895BC
:100DE0002F5F3F4F81E090E001C0880F2A95EAF71E
:100DF00093B3662379F1892B83BB0895662391F120
:100E00006E9A08952250310981E090E001C0880F68
:100E10002A95EAF797B1662309F1892B87B90895D6
:100E200021E030E001C0220F8A95EAF784B1662301
:100E3000D9F0282B24B90895662331F0209A08951B
:100E40008095892384B908952098089520952823B2
:100E50002DB908958095892383BB089580958923B2
:100E600087B908956E9808952095282324B9089588
:100E7000219A0895282F30E08E30B0F4F901ED5B0F
:100E8000F84F0C94020964076407700770077E0727
:100E9000900790078207820782079C07550755072E
:100EA0005107611165C0299808952950310981E0E1
:100EB00090E001C0880F2A95EAF795B1662309F4FE
:100EC0003FC0892B85B9089521E030E001C0220F91
:100ED0008A95EAF78EB16623C9F1282B2EB90895B9
:100EE0002F5F3F4F81E090E001C0880F2A95EAF71D
:100EF00094B3662379F1892B84BB0895662391F11D
:100F0000769A08952250310981E090E001C0880F5F
:100F10002A95EAF798B1662309F1892B88B90895D3
:100F200021E030E001C0220F8A95EAF785B16623FF
:100F3000D9F0282B25B90895662331F0289A089511
:100F40008095892385B908952898089520952823A8
:100F50002EB908958095892384BB089580958923AF
:100F600088B90895769808952095282325B908957D
:100F7000299A0895811104C0613031F0A098089534
:100F8000613021F0A1980895A09A0895A19A08953A
:100F9000882311F0A19A0895A09A0895882311F04A
:100FA000A1980895A0980895529A83B3836083BB53
:100FB000779A0E9475010E94E9030E9432060E94FE
:100FC000970541E06AE28CE10E944B032FEF81EE2E
:100FD00094E0215080409040E1F700C000000C9464
:100FE000B5010F931F93CF93DF930E94D4076FE750
:100FF00080E00E941A066FE781E00E941A060E94B4
:101000005C052FEF81EE94E0215080409040E1F7A5
:1010100000C00000C1E0D0E002E010E00E945C05EA
:1010200080911E0190911F010E94DE040E943C01EC
:1010300080911E0190911F018230910589F178F411
:10104000009709F44EC0019709F044C00E94C70000
:10105000882321F310931F0100931E01DFCF8330FB
:10106000910509F10497B1F581E080930101809326
:101070000201809120019091210185369105DCF1DA
:10108000D0931F01C0931E0181E0809301018093E2
:101090000201809300011092210110922001BECF25
:1010A0000E94E000BBCF8091220190912301893CF6
:1010B0009105DCF1D0931F01C0931E0181E0809364
:1010C000010180930201809300011092230110928C
:1010D0002201A4CF8FEF9FEFDF91CF911F910F914E
:1010E00008950E946106882309F498CFD0931F01C8
:1010F000C0931E0193CF68E280E00E948E0065E7F6
:1011000081E00E941A0680912201909123010196AC
:1011100090932301809322018091200190912101DD
:10112000853691050CF47ACFABCF68ED80E00E9454
:101130008E006DE881E00E941A0680912201909154
:10114000230101969093230180932201893C91050C
:101150000CF464CFAFCFDB018F939F930E940809FB
:10116000BF91AF91A29F800D911DA39F900DB29F43
:10117000900D11240895AA1BBB1B51E107C0AA1FA3
:10118000BB1FA617B70710F0A61BB70B881F991F28
:101190005A95A9F780959095BC01CD01089597FBCC
:1011A000072E16F4009407D077FD09D00E94BB08E3
:1011B00007FC05D03EF4909581959F4F089570955A
:1011C00061957F4F0895052E97FB1EF400940E94B1
:1011D000FA0857FD07D00E94130907FC03D04EF40C
:1011E0000C94FA0850954095309521953F4F4F4FFC
:1011F0005F4F089590958095709561957F4F8F4FC3
:101200009F4F0895EE0FFF1F0590F491E02D099474
:101210000E943509A59F900DB49F900DA49F800D4D
:10122000911D11240895A1E21A2EAA1BBB1BFD01DA
:101230000DC0AA1FBB1FEE1FFF1FA217B307E407B5
:10124000F50720F0A21BB30BE40BF50B661F771F0D
:10125000881F991F1A9469F76095709580959095ED
:101260009B01AC01BD01CF010895A29FB001B39FC6
:10127000C001A39F700D811D1124911DB29F700D9F
:0C128000811D1124911D0895F894FFCFEA
:10128C00010101616464724E41434B0077725F4E01
:0E129C0041434B00726561644E41434B0000BC
:00000001FF
