:100000000C942E000C944B000C944B000C944B0061
:100010000C944B000C944B000C944B000C940D056D
:100020000C944B000C944B000C944B000C944B0024
:100030000C944B000C944B000C944B000C944B0014
:100040000C944B000C944B000C944B000C944B0004
:100050000C944B000C944B000C944B0011241FBECD
:10006000CFEFD0E1DEBFCDBF11E0A0E0B1E0E8E12D
:10007000F6E102C005900D92A632B107D9F721E052
:10008000A6E2B1E001C01D92A934B207E1F70E94D7
:100090003C070C940A0B0C9400004F925F926F92F5
:1000A0007F92AF92BF92CF92DF92EF92FF920F9327
:1000B0001F93CF93DF93CDB7DEB729013A019B01A0
:1000C000AC01241935094609570989899A89AB89F0
:1000D000BC89BC01CD016A197B098C099D090E946C
:1000E000D308A801970124193509460957090E9428
:1000F0000B09CA01B9016A0D7B1D8C1D9D1DDF9185
:10010000CF911F910F91FF90EF90DF90CF90BF9014
:10011000AF907F906F905F904F900895CF93C82FCE
:100120006436710574F46D398FEF780794F06115BA
:10013000710589F46FE7C11107C080E0CF910C947D
:1001400065056DE9CC23C9F3619581E0CF910C94ED
:10015000650561E6F7CF9B01770F440B550B2C59D2
:100160003F4F4F4F5F4FACE3B0E00E94300928ECA7
:1001700030E040E050E00E940B0961E6620FE2CF00
:10018000EAE7F0E0808187688083ECE7F0E0808137
:1001900080668083089590917C00987F90937C0086
:1001A00090917C00892B80937C0080917A00806400
:1001B00080937A0080917A0086FDFCCF809179004F
:1001C00008958DB18F7C8DB985E08A95F1F7000097
:1001D0006D9A759885E08A95F1F700006C9A74988D
:1001E00085E08A95F1F7000008956C9885E08A957E
:1001F000F1F700006D9885E08A95F1F70000089509
:100200006D9885E08A95F1F7000065990DC06C98AE
:1002100085E08A95F1F700006C9A749885E08A95DC
:10022000F1F70000659BF3CF6C9808956C9885E01A
:100230008A95F1F700006C9A749885E08A95F1F739
:10024000000008951F93CF93DF93C82FD62F142F4C
:100250000E9400010E94E10087E013C06D9895E0C4
:100260009A95F1F700006C9895E09A95F1F70000E7
:100270006C9A749895E09A95F1F70000CC0F815034
:1002800029F0C6FDEBCF6D9A7598E9CF6D9A7598F8
:1002900085E08A95F1F700006C9895E09A95F1F762
:1002A00000006C9A749885E08A95F1F700006D98CB
:1002B00095E09A95F1F700006C9865994BC085E040
:1002C0008A95F1F700006C9A749895E09A95F1F789
:1002D000000088E014C06D9A759895E09A95F1F742
:1002E00000006C9895E09A95F1F700006C9A74986C
:1002F00095E09A95F1F70000DD0F815021F0D7FFCE
:10030000EACF6D98EACF6D9885E08A95F1F7000005
:100310006C9865991AC095E09A95F1F700006C9A6F
:10032000749885E08A95F1F70000112351F06C98DC
:1003300095E09A95F1F700006D9885E08A95F1F7C0
:100340000000DF91CF911F91089588E191E00E9414
:100350000404FFCF8CE091E00E940404FFCFFC0175
:100360006623D1F14FEF460F50E04F5F5F4F480FCC
:10037000591F908128E016C06D9A759885E08A957E
:10038000F1F700006C9885E08A95F1F700006C9A0F
:10039000749885E08A95F1F700009081990F908319
:1003A000215021F097FFE8CF6D98E8CF31966D98F6
:1003B00085E08A95F1F700006C98659918C085E092
:1003C0008A95F1F700006C9A749885E08A95F1F7A8
:1003D00000004E175F0769F66C9885E08A95F1F783
:1003E00000006D9885E08A95F1F70000089585E199
:1003F00091E00E940404FFCF0F931F93CF93DF93EC
:10040000082FEB01142F0E94E10087E013C06D98C4
:1004100095E09A95F1F700006C9895E09A95F1F7C0
:1004200000006C9A749895E09A95F1F70000000F1F
:10043000815029F006FDEBCF6D9A7598E9CF6D9844
:1004400085E08A95F1F700006C9895E09A95F1F7B0
:1004500000006C9A749885E08A95F1F700006D9819
:1004600095E09A95F1F700006C9865995AC085E07F
:100470008A95F1F700006C9A749895E09A95F1F7D7
:1004800000006D9885E08A95F1F700001123B1F125
:100490002FEF210F30E02F5F3F4F2C0F3D1F98E0D3
:1004A0008881880F88836C9885E08A95F1F7000031
:1004B000659B03C088818160888385E08A95F1F718
:1004C00000006C9A749885E08A95F1F700009150CD
:1004D00039F76D9A759895E09A95F1F700006C9848
:1004E00085E08A95F1F700006C9A749895E09A95EA
:1004F000F1F7000021962C173D0789F685E08A95D3
:10050000F1F700006C9895E09A95F1F700006D986E
:1005100085E08A95F1F70000DF91CF911F910F914F
:1005200008958DE191E00E940404FFCFCF93DF9303
:100530001F92CDB7DEB7498340E00E94220161E0FF
:10054000CE0101960E94AF010F90DF91CF910895E7
:100550001F93CF93DF931F92CDB7DEB7182F41E0E3
:100560000E94220141E0BE016F5F7F4F812F0E94F8
:10057000FC0189810F90DF91CF911F91089561E077
:100580008CE10C94A80263E08CE10C94A80265E075
:100590008CE10C94A8028AE08A95F1F700C0449A95
:1005A0008AE08A95F1F700C044988AE08A95F1F7CD
:1005B00000C00895F89482B98AE08A95F1F700C0E6
:1005C000449A8AE08A95F1F700C044988AE08A95B7
:1005D000F1F700C0789408958F98F89482B98AE072
:1005E0008A95F1F700C0449A8AE08A95F1F700C035
:1005F00044988AE08A95F1F700C0789408958F9A1C
:10060000F89482B98AE08A95F1F700C0449A8AE0AA
:100610008A95F1F700C044988AE08A95F1F700C006
:1006200078940895803110F4623008F008956E5F78
:100630006295660F660F607C860F8F98F89482B97A
:100640008AE08A95F1F700C0449A8AE08A95F1F72A
:1006500000C044988AE08A95F1F700C0789485EC50
:100660008A95F1F7000008953C9A879A8FEF81B937
:100670008FE19EE40197F1F700C000008F98F89495
:1006800088E382B99AE09A95F1F700C0449AEAE0CB
:10069000EA95F1F700C04498FAE0FA95F1F700C046
:1006A0007894EFE7F2E03197F1F700C000008F98FF
:1006B000F89482B9FAE0FA95F1F700C0449A9AE00A
:1006C0009A95F1F700C04498EAE0EA95F1F700C086
:1006D0007894EFE7F2E03197F1F700C000008F98CF
:1006E000F89482B9FAE0FA95F1F700C0449A9AE0DA
:1006F0009A95F1F700C04498EAE0EA95F1F700C056
:100700007894EFE7F2E03197F1F700C000008F989E
:10071000F89498E092B9FAE0FA95F1F700C0449A9B
:100720009AE09A95F1F700C04498EAE0EA95F1F76B
:1007300000C07894EFE7F2E03197F1F700C00000D5
:100740008F98F89491E092B9FAE0FA95F1F700C029
:10075000449A9AE09A95F1F700C04498EAE0EA9545
:10076000F1F700C07894EFE7FEE33197F1F700C0AE
:1007700000008F98F89496E092B9FAE0FA95F1F7B4
:1007800000C0449A9AE09A95F1F700C04498EAE0D4
:10079000EA95F1F700C07894EFE7F2E03197F1F7CE
:1007A00000C000008F98F89482B9FAE0FA95F1F74A
:1007B00000C0449A8AE08A95F1F700C044989AE014
:1007C0009A95F1F700C07894EFE8F1E03197F1F7EE
:1007D00000C000008F98F8948CE082B9FAE0FA9596
:1007E000F1F700C0449A8AE08A95F1F700C0449876
:1007F0009AE09A95F1F700C07894EFE8F1E031972C
:10080000F1F700C000000895DC019C91992301F1EB
:1008100020E08F9AF89492B98AE08A95F1F700C0A7
:10082000449A9AE09A95F1F700C044988AE08A9534
:10083000F1F700C078948FE792E00197F1F700C0DC
:1008400000002F5FFD01E20FF11D90819111E1CFBA
:1008500008951F93CF93DF939C01892B09F45AC00D
:1008600045E011E0EFE0F7E2CAE0D0E0C901BF01E6
:100870006F5F7F4F0E94E308662349F1E217F30799
:1008800070F5605D8F9AF89462B9BAE0BA95F1F7A5
:1008900000C0449A2AE02A95F1F700C04498AAE0E3
:1008A000AA95F1F700C07894AFE7B2E01197F1F79D
:1008B00000C0000010E09C01CF01BE010E94F708BB
:1008C000FB01415099F6DF91CF911F910895E217F6
:1008D000F30718F41111EFCFD4CF1111EDCF605DF4
:1008E0008F9AF89462B9BAE0BA95F1F700C0449AC9
:1008F0008AE08A95F1F700C044989AE09A95F1F75A
:1009000000C07894AFE7B2E01197F1F700C00000A3
:1009100010E0D2CF8F9AF89480E382B92AE02A952A
:10092000F1F700C0449A8AE08A95F1F700C0449834
:100930009AE09A95F1F700C07894AFE7B2E011978A
:10094000F1F700C00000DF91CF911F9108958F98BB
:10095000F89481E082B98AE08A95F1F700C0449A60
:100960009AE09A95F1F700C044988AE08A95F1F7E9
:1009700000C078948FE79EE30197F1F700C0000074
:1009800008955D9A5C980895382F262F4FEF6403E1
:10099000C001112464E670E00E94F708311107C01D
:1009A0006093B300121664F45C9A5D98089567BD75
:1009B00012161CF45E9A5F9808955F9A5E980895E7
:1009C0000C94C104CF93DF93C3EBD0E018820E9454
:1009D000C10417BC5F9A5E9884B1806984B98AB1FA
:1009E000806F8AB9E0EBF0E0808188668083808147
:1009F0008260808384B5886684BD84B5826084BD4E
:100A00008AE087BD8883DF91CF9108955C9A5D98D5
:100A10002C9A5F9A5E982F9A08951F920F920FB6A4
:100A20000F9211242F933F934F935F938F939F9334
:100A3000EF93FF9340913801542F5695852F90E006
:100A400021E030E001C0220F5A95EAF740FD27C0AF
:100A50004091880050918900880F991FFC01EF5B3D
:100A6000FE4F80819181840F951F90938900809320
:100A7000880088B1282B28B9809138018F5F877052
:100A800080933801FF91EF919F918F915F914F91EA
:100A90003F912F910F900FBE0F901F90189540918E
:100AA000880050918900880F991FFC01E75CFE4F78
:100AB00080819181840F951F909389008093880095
:100AC00088B12095282328B9D7CF90E02AE0629FEB
:100AD000B00111246C53764F880F991FFC01EF5B16
:100AE000FE4F71836083875C9E4F24ED30E3261BAD
:100AF000370BFC01318320830895A1E4B1E024EC9D
:100B000039E011963C932E93E9E3F1E080E197E21E
:100B10009183808313963C932E93129793838283C1
:100B200015963C932E9314979583848317963C9344
:100B30002E9316979783868387B18F6087B9E1E8F4
:100B4000F0E01082808182608083EFE6F0E08081B7
:100B500082608083789408958CB18095881F88275F
:100B6000881F0895282F30E08E3010F080E008951F
:100B7000F901E354FA4F0C942A09DA05DA05E50580
:100B8000E505F005F505F505F705F705F705020696
:100B9000CB05CB05D60583B190E02950310902C0C1
:100BA000959587952A95E2F78170089583B186958A
:100BB000817008952CB130E0A90102C05595479588
:100BC0008A95E2F7CA018170089582B390E02F5FA1
:100BD0003F4F02C0959587952A95E2F78170089559
:100BE0008CB186FB882780F9089523B1E4CF86B1C4
:100BF00090E02250310902C0959587952A95E2F739
:100C00008170089583B181700895282F30E08E306F
:100C1000B0F4F901E25FF94F0C942A092F062F0670
:100C20003B063B0649065B065B064D064D064D0638
:100C30006706200620061C06611165C021980895EC
:100C40002950310981E090E001C0880F2A95EAF728
:100C500094B1662309F43FC0892B84B9089521E03B
:100C600030E001C0220F8A95EAF78DB16623C9F101
:100C7000282B2DB908952F5F3F4F81E090E001C0F0
:100C8000880F2A95EAF793B3662379F1892B83BB02
:100C90000895662391F16E9A08952250310981E0FA
:100CA00090E001C0880F2A95EAF797B1662309F111
:100CB000892B87B9089521E030E001C0220F8A9581
:100CC000EAF784B16623D9F0282B24B90895662366
:100CD00031F0209A08958095892384B90895209849
:100CE0000895209528232DB908958095892383BBE5
:100CF00008958095892387B908956E980895209561
:100D0000282324B90895219A0895282F30E08E30A1
:100D1000B0F4F901E257F94F0C942A09AF06AF0677
:100D2000BB06BB06C906DB06DB06CD06CD06CD0637
:100D3000E706A006A0069C06611165C029980895E3
:100D40002950310981E090E001C0880F2A95EAF727
:100D500095B1662309F43FC0892B85B9089521E038
:100D600030E001C0220F8A95EAF78EB16623C9F1FF
:100D7000282B2EB908952F5F3F4F81E090E001C0EE
:100D8000880F2A95EAF794B3662379F1892B84BBFF
:100D90000895662391F1769A08952250310981E0F1
:100DA00090E001C0880F2A95EAF798B1662309F10F
:100DB000892B88B9089521E030E001C0220F8A957F
:100DC000EAF785B16623D9F0282B25B90895662363
:100DD00031F0289A08958095892385B90895289837
:100DE0000895209528232EB908958095892384BBE2
:100DF00008958095892388B9089576980895209557
:100E0000282325B90895299A0895811104C06130D5
:100E100031F0A0980895613021F0A1980895A09A2A
:100E20000895A19A0895882311F0A19A0895A09A8F
:100E30000895882311F0A1980895A0980895529AD2
:100E400083B3836083BB779A0E94C0000E943403FF
:100E50000E947D050E94E20441E06AE28CE10E946A
:100E600096022FEF81EE94E0215080409040E1F710
:100E700000C000000C940001CF93DF93CDB7DEB724
:100E80002E970FB6F894DEBF0FBECDBF0E941F078E
:100E90006FE780E00E9465056FE781E00E946505CD
:100EA0000E94A7048CE0282E8EEF382E13C184EF09
:100EB00091E0909327018093260120E030E04AEFF3
:100EC00053E42B873C874D875E8740E050E06AEF14
:100ED00073EC4F83588769877A87809008019090D8
:100EE0000901A0900A01B0900B01C0900401D090BC
:100EF0000501E0900601F0900701609100017091FA
:100F0000010180910201909103016B837C838D83A9
:100F10009E8366277727601B710B072E000C880BBA
:100F2000990B0E94110AA50194010E949D0A2B01B0
:100F30003C0169817A81719561957109072E000CD8
:100F4000880B990B0E94110AA70196010E949D0A25
:100F50009B01AC01C301B2010E946D092B013C0150
:100F60002F81388549855A856B817C818D819E8151
:100F70000E949D0A9B01AC01C301B2010E946D0950
:100F800020E030E040EF51E40E946D090E94D90951
:100F900078876F837093350160933401B801110F26
:100FA000880B990B0E94110AA50194010E949D0AC9
:100FB0004B015C01A981BA81BD01BB0F880B990B64
:100FC0000E94110AA70196010E949D0A9B01AC0193
:100FD000C501B4010E946D096B017C012B853C8524
:100FE0004D855E856B817C818D819E810E949D0AED
:100FF0009B01AC01C701B6010E946D0920E030E001
:1010000040EF51E40E946D090E94D9099B01709341
:101010003301609332018091300190913101AC0134
:10102000465F5F4F6F8178854617570734F45093BA
:1010300035014093340158874F830A97AF81B885B3
:10104000A817B90734F49093350180933401988739
:101050008F8380912E0190912F01AC01465F5F4FED
:10106000421753072CF450933301409332019A01F5
:101070000A97281739072CF4909333018093320193
:101080009C014F815885509331014093300130933A
:101090002F0120932E01BA0180E00E948E00609102
:1010A00032017091330181E00E948E0060E081E0A6
:1010B0000E94120380912C0190912D010E9429041D
:1010C00061E080E00E941203809128019091290143
:1010D0000E94290485E00E94CB00815F8093370144
:1010E00084E00E94CB008093360100913701081BF9
:1010F000110B10932D0100932C0180912A019091E6
:101100002B019801281B390B3A832983309329013D
:101110002093280110932B0100932A01409126016E
:1011200050912701400F511F5C834B83443F514036
:101130000CF0BDCE6B817C816D308EEF7807ACF406
:10114000309227012092260120E030E04AEF53EC54
:101150002B873C874D875E8740E050E06AEF73E461
:101160004F83588769877A87B8CE70932701609339
:101170002601719561957109072E000C880B990B5A
:101180000E94110A6F83788789879A87AB81BC8117
:10119000BD01BB0F880B990B0E94110A6B877C87DE
:1011A0008D879E879ACEDB018F939F930E94300993
:1011B000BF91AF91A29F800D911DA39F900DB29FF3
:1011C000900D11240895AA1BBB1B51E107C0AA1F53
:1011D000BB1FA617B70710F0A61BB70B881F991FD8
:1011E0005A95A9F780959095BC01CD01089597FB7C
:1011F000072E16F4009407D077FD09D00E94E3086B
:1012000007FC05D03EF4909581959F4F0895709509
:1012100061957F4F0895052E97FB1EF400940E9460
:10122000220957FD07D00E943B0907FC03D04EF46A
:101230000C94220950954095309521953F4F4F4F82
:101240005F4F089590958095709561957F4F8F4F72
:101250009F4F0895EE0FFF1F0590F491E02D099424
:101260000E945D09A59F900DB49F900DA49F800DD5
:10127000911D11240895A1E21A2EAA1BBB1BFD018A
:101280000DC0AA1FBB1FEE1FFF1FA217B307E40765
:10129000F50720F0A21BB30BE40BF50B661F771FBD
:1012A000881F991F1A9469F760957095809590959D
:1012B0009B01AC01BD01CF010895A29FB001B39F76
:1012C000C001A39F700D811D1124911DB29F700D4F
:1012D000811D1124911D08955058BB27AA270E94F3
:1012E00084090C94630A0E94550A38F00E945C0A33
:1012F00020F039F49F3F19F426F40C94520A0EF4AE
:10130000E095E7FB0C944C0AE92F0E94740A58F30D
:10131000BA17620773078407950720F079F4A6F5DA
:101320000C94960A0EF4E0950B2EBA2FA02D0B010B
:10133000B90190010C01CA01A0011124FF27591B1A
:1013400099F0593F50F4503E68F11A16F040A22F20
:10135000232F342F4427585FF3CF46953795279591
:10136000A795F0405395C9F77EF41F16BA0B620B90
:10137000730B840BBAF09150A1F0FF0FBB1F661FD7
:10138000771F881FC2F70EC0BA0F621F731F841F1A
:1013900048F4879577956795B795F7959E3F08F040
:1013A000B0CF9395880F08F09927EE0F9795879502
:1013B00008950E94E0096894B1110C94970A089569
:1013C0000E947C0A88F09F5798F0B92F9927B7514F
:1013D000B0F0E1F0660F771F881F991F1AF0BA95D9
:1013E000C9F714C0B13091F00E94960AB1E0089597
:1013F0000C94960A672F782F8827B85F39F0B93F89
:10140000CCF3869577956795B395D9F73EF490958B
:101410008095709561957F4F8F4F9F4F0895E89409
:1014200009C097FB3EF490958095709561957F4F2C
:101430008F4F9F4F9923A9F0F92F96E9BB279395DA
:10144000F695879577956795B795F111F8CFFAF4EA
:10145000BB0F11F460FF1BC06F5F7F4F8F4F9F4F1B
:1014600016C0882311F096E911C0772321F09EE879
:10147000872F762F05C0662371F096E8862F70E0DF
:1014800060E02AF09A95660F771F881FDAF7880FB9
:101490009695879597F9089597F99F6780E870E08A
:1014A00060E008959FEF80EC089500240A941616DA
:1014B000170618060906089500240A941216130642
:1014C000140605060895092E0394000C11F48823D0
:1014D00052F0BB0F40F4BF2B11F460FF04C06F5FEC
:1014E0007F4F8F4F9F4F089557FD9058440F551FC2
:1014F00059F05F3F71F04795880F97FB991F61F096
:101500009F3F79F087950895121613061406551F0C
:10151000F2CF4695F1DF08C0161617061806991F78
:10152000F1CF86957105610508940895E894BB276D
:1015300066277727CB0197F908950E94B00A0C948B
:10154000630A0E94550A38F00E945C0A20F0952335
:1015500011F00C944C0A0C94520A11240C94970A22
:101560000E94740A70F3959FC1F3950F50E0551FC8
:10157000629FF001729FBB27F00DB11D639FAA27E8
:10158000F00DB11DAA1F649F6627B00DA11D661F37
:10159000829F2227B00DA11D621F739FB00DA11D58
:1015A000621F839FA00D611D221F749F3327A00D12
:1015B000611D231F849F600D211D822F762F6A2FAE
:1015C00011249F5750409AF0F1F088234AF0EE0F13
:1015D000FF1FBB1F661F771F881F91505040A9F740
:1015E0009E3F510580F00C944C0A0C94970A5F3F83
:1015F000E4F3983ED4F3869577956795B795F7957C
:10160000E7959F5FC1F7FE2B880F911D96958795F3
:0816100097F90895F894FFCF4B
:101618000AD7A33CCDCC4C3F0AD7A33D6164647282
:101628004E41434B0077725F4E41434B00726561F8
:06163800644E41434B002B
:00000001FF
