:100000000C9442000C945F000C945F000C945F0011
:100010000C945F000C945F000C945F000C94930BA5
:100020000C945F000C945F000C945F000C945F00D4
:100030000C945F000C945F000C945F000C945F00C4
:100040000C945F000C945F000C945F000C945F00B4
:100050000C945F000C945F000C945F0007634236C1
:10006000B79BD8A71A39685618AEBAAB558C1D3C49
:10007000B7CC5763BD6DEDFD753EF6177231BF000D
:100080000000803F11241FBECFEFD0E1DEBFCDBF07
:1000900011E0A0E0B1E0EEE5F4E202C005900D92BF
:1000A000A634B107D9F723E0A6E4B1E001C01D9260
:1000B000A339B207E1F70E94C20D0C942D120C94E3
:1000C00000004F925F926F927F92AF92BF92CF9259
:1000D000DF92EF92FF920F931F93CF93DF93CDB7F1
:1000E000DEB729013A019B01AC0124193509460903
:1000F000570989899A89AB89BC89BC01CD016A19E4
:100100007B098C099D090E943B0EA80197012419C7
:100110003509460957090E94730ECA01B9016A0DD3
:100120007B1D8C1D9D1DDF91CF911F910F91FF9025
:10013000EF90DF90CF90BF90AF907F906F905F90E7
:100140004F9008954F925F926F927F92AF92BF92BD
:10015000CF92DF92EF92FF920F931F93CF93DF9393
:10016000CDB7DEB728970FB6F894DEBF0FBECDBF70
:1001700029013A01ED82FE820F8318870E94D40E76
:1001800069837A838B839C83A6019501698D7A8D1F
:100190008B8D9C8D0E94D40E9B01AC0169817A816C
:1001A0008B819C810E944E1169837A838B839C830F
:1001B000A3019201C801B7010E94D40E9B01AC01BA
:1001C00069817A818B819C810E94410FA6019501F2
:1001D0000E94D50E28960FB6F894DEBF0FBECDBF95
:1001E000DF91CF911F910F91FF90EF90DF90CF9013
:1001F000BF90AF907F906F905F904F9008958F92D7
:100200009F92AF92BF92CF92DF92EF92FF92CF93E5
:10021000DF93282F261B330BE901309347012093EE
:1002200046018090000190900101A0900201B090E1
:10023000030166277727621B730B072E000C880BC0
:10024000990B0E942510A50194010E944E1120E0F7
:1002500030E040EA51E40E94D50E0E94ED0F77FF96
:1002600002C070E060E06536710514F064E670E08D
:100270006B01BE01DD0F880B990B0E942510A501B3
:1002800094010E944E1120E030E040EA51E40E94C7
:10029000D50E0E94ED0F77FF02C070E060E065367A
:1002A000710514F064E670E0CB01B601DF91CF91E7
:1002B000FF90EF90DF90CF90BF90AF909F908F9086
:1002C0000895CF93DF938091480190914901883C34
:1002D000910524F0109249011092480185E00E9496
:1002E0005107D82F84E00E945107C82F0E942D0B80
:1002F00060E080E00E949809809148019091490156
:100300000E94AF0A61E080E00E9498098D2F90E082
:100310000E94AF0A61E084E00E9498098C2F90E06F
:100320000E94AF0A8091480190914901FC01EE0FB3
:10033000FF1FED56FE4FD083C18301969093490174
:10034000809348018FE39CE90197F1F700C000001A
:10035000DF91CF910895CF93C82F61157105D9F022
:100360009B01770F440B550B2C593F4F4F4F5F4F5D
:10037000ACE3B0E00E94980E28EC30E040E050E0A2
:100380000E94730E61E6620FCC2341F0619581E01B
:10039000CF910C94EB0B6FE7C111F8CF80E0CF91B8
:1003A0000C94EB0BCF92DF92EF92FF92CF9385E00C
:1003B0000E945107C82F84E00E945107682F8FE0E8
:1003C0008C0F0E94FF007C0180E00E94AB01B7010E
:1003D00081E0CF91FF90EF90DF90CF900C94AB0134
:1003E0000E94151264E670E00E945F0EBC01990F36
:1003F000880B990B0E94251020E030E048EC52E475
:100400000E94410F08958F929F92AF92BF92CF9218
:10041000DF92EF92FF920F931F93CF93DF93C3E28C
:10042000D3E004E610E06091930170E090E080E09A
:100430000E94231020E030E04FE753E40E94410F78
:1004400020E030E0A9010E94D50E688379838A8379
:100450009B836091940170E090E080E00E94231003
:1004600020E030E04FE753E40E94410F20E030E00D
:10047000A9010E94D50E6C837D838E839F830E9489
:100480001512B8010E945F0EBC01990F880B990BE1
:100490000E94251020E030E048EC52E40E94410F19
:1004A000688779878A879B870E941512B8010E9406
:1004B0005F0EBC01990F880B990B0E94251020E05C
:1004C00030E048EC52E40E94410F6C877D878E87B4
:1004D0009F870E941512B8010E945F0EBC01990F00
:1004E000880B990B0E94251020E030E048EC52E484
:1004F0000E94410F6B017C01C88AD98AEA8AFB8A73
:10050000288539854A855B85688179818A819B81C7
:100510000E944E114B015C012C853D854E855F8507
:100520006C817D818E819F810E944E119B01AC0167
:10053000C501B4010E94D50EA70196010E94D50EF7
:1005400090580E94BB0F20E030E040E85FE30E943B
:10055000D50E9B01AC0160E070E080E89FE30E9453
:10056000410F6C8B7D8B8E8B9F8B689683E0CB3697
:10057000D80709F058CFDF91CF911F910F91FF90CD
:10058000EF90DF90CF90BF90AF909F908F900895A5
:100590008F929F92AF92BF92CF92DF92EF92FF9293
:1005A0000F931F93CF93DF93C3E5D1E004E610E0F0
:1005B0008091370390913803A0913903B0913A03A9
:1005C00088839983AA83BB8380914F0390915003C2
:1005D000A0915103B09152038C839D83AE83BF835E
:1005E0008091670390916803A0916903B0916A03B9
:1005F00088879987AA87BB870E941512B8010E9435
:100600005F0EBC01990F880B990B0E94251020E00A
:1006100030E048EC52E40E94410F6C877D878E8762
:100620009F870E941512B8010E945F0EBC01990FAE
:10063000880B990B0E94251020E030E048EC52E432
:100640000E94410F688B798B8A8B9B8B0E941512BD
:10065000B8010E945F0EBC01990F880B990B0E9494
:10066000251020E030E048EC52E40E94410F6C8BF2
:100670007D8B8E8B9F8B0E941512B8010E945F0E9E
:10068000BC01990F880B990B0E94251020E030E0E7
:1006900048EC52E40E94410F6B017C01C88ED98E58
:1006A000EA8EFB8E2C853D854E855F85688179813C
:1006B0008A819B810E944E114B015C0128893989F6
:1006C0004A895B896C817D818E819F810E944E1158
:1006D0009B01AC01C501B4010E94D50E4B015C0128
:1006E0002C893D894E895F89688579858A859B85B6
:1006F0000E944E119B01AC01C501B4010E94D50EB0
:10070000A70196010E94D50E90580E94BB0F20E0D1
:1007100030E040E85FE30E94D50E9B01AC0160E051
:1007200070E080E89FE30E94410F6C8F7D8F8E8F79
:100730009F8FA09681E0C339D80709F039CFDF91A8
:10074000CF911F910F91FF90EF90DF90CF90BF90CE
:10075000AF909F908F9008954F925F926F927F928B
:100760008F929F92AF92BF92CF92DF92EF92FF92C1
:10077000CF93DF9300D000D000D0CDB7DEB7698330
:10078000682F70E090E080E00E94231020E030E0CD
:100790004FE753E40E94410F20E030E0A9010E949E
:1007A000D50E4B015C012981622F70E090E080E062
:1007B0000E94231020E030E04FE753E40E94410FF5
:1007C00020E030E0A9010E94D50E6B017C0183E29C
:1007D00093E09A838983A981BA818D929D92AD928B
:1007E000BC921397FD01C482D582E682F7822085F0
:1007F000318542855385C501B4010E944E112B01FC
:100800003C01A981BA811C962D913D914D915C913D
:100810001F97C701B6010E944E119B01AC01C30195
:10082000B2010E94D50EE981FA812089318942897D
:1008300053890E94D50E90580E94BB0F20E030E0F3
:1008400040E85FE30E94D50E9B01AC0160E070E0E0
:1008500080E89FE30E94410FA981BA8154966D936D
:100860007D938D939C9357975896BA83A983AB56E3
:10087000B34009F0B0CF8090370390903803A09038
:100880003903B0903A03C0904F03D0905003E090EA
:100890005103F09052038091670390916803A091F7
:1008A0006903B0916A0389839A83AB83BC83A3E510
:1008B000B1E0BE83AD83ED81FE8180829182A28210
:1008C000B382C482D582E682F78289819A81AB8124
:1008D000BC8180879187A287B3872485358546852B
:1008E0005785C501B4010E944E112B013C01AD8119
:1008F000BE8150962D913D914D915C915397C701CA
:10090000B6010E944E119B01AC01C301B2010E94CD
:10091000D50E2B013C01ED81FE8124893589468964
:10092000578969817A818B819C810E944E119B013C
:10093000AC01C301B2010E94D50EAD81BE815896B3
:100940002D913D914D915C915B970E94D50E9058F1
:100950000E94BB0F20E030E040E85FE30E94D50E2C
:100960009B01AC0160E070E080E89FE30E94410FD2
:10097000ED81FE81648F758F868F978FB096FE8391
:10098000ED83E359F14009F096CF20E030E048ECE8
:1009900052E460918F01709190018091910190914A
:1009A00092010E944E1120E030E0A9010E94D50E74
:1009B0000E94ED0F6B0120E030E048EC52E46091C2
:1009C0006F017091700180917101909172010E948C
:1009D0004E1120E030E0A9010E94D50E0E94ED0FDB
:1009E0004B01B401C60126960FB6F894DEBF0FBEC8
:1009F000CDBFDF91CF91FF90EF90DF90CF90BF9070
:100A0000AF909F908F907F906F905F904F900895E0
:100A10002F923F924F925F926F927F928F929F920E
:100A2000AF92BF92CF92DF92EF92FF920F931F93FC
:100A3000CF93DF93CDB7DEB7AA970FB6F894DEBF9A
:100A40000FBECDBF181619060CF007C29AA789A7CA
:100A500018A61FA223E931E03A8F298FA98DBA8DFC
:100A6000BC91BF8FE98DFA8DF181F8A36F2F8B2F89
:100A70000E94AC0368A18F8D0E94FF007C01072EAD
:100A8000000C880B990B0E94251020E030E048EC08
:100A900052E40E94410F20E030E0A9010E94D50EEF
:100AA0006B8F7C8F8D8F9E8FB701FF0C880B990BFE
:100AB0000E94251020E030E048EC52E40E94410FF3
:100AC00020E030E0A9010E94D50E2B8D3C8D4D8D8C
:100AD0005E8D29833A834B835C836D837E838F8312
:100AE00098878091040190910501A0910601B09131
:100AF00007018D8B9E8BAF8BB88F03E511E08BE6E2
:100B0000282E83E0382EABE4B1E0BA8BA98BFE012E
:100B10003596FEA3EDA33A862986D8011C968D91C1
:100B20009D910D90BC91A02D8D879E87AF87B88B2E
:100B3000E985FA8580839183A283B383D801509697
:100B40008D909D90AD90BC90539784829582A682A3
:100B5000B78254964D905D906D907C9057974086EB
:100B6000518662867386F801C48CD58CE68CF78C2E
:100B7000A701960160E070E080E89FE30E94D40E38
:100B8000A70196010E944E1169A37AA38BA39CA38F
:100B90002B8D3C8D4D8D5E8DC701B6010E94D40E0C
:100BA0009B01AC0169A17AA18BA19CA10E944E116D
:100BB000A989BA896D937D938D939D93BA8BA98BE7
:100BC0002D893E894F89588D0E944E116B017C0101
:100BD000F80120813181428153810E944E119B0195
:100BE000AC016D857E858F8598890E94D40ED801D1
:100BF0001C966D937D938D939C931F9714962D91C6
:100C00003D914D915C911797C701B6010E944E111D
:100C10009B01AC01C501B4010E94D40EF801608BA8
:100C2000718B828B938B2085318542855385C701DB
:100C3000B6010E944E119B01AC01C301B2010E949A
:100C4000D40ED80154966D937D938D939C935797B2
:100C5000A701960158966D917D918D919C915B971E
:100C60000E94D40EF801608F718F828F938F005E87
:100C70001F4F29853A85245F3F4F3A87298731E006
:100C80000339130769F0EDA1FEA181919191A19122
:100C9000B191FEA3EDA38B8F9C8FAD8FBE8F3DCF07
:100CA00020914B0130914C0140914D0150914E01EA
:100CB00029873A874B875C8780914F01909150013B
:100CC000A0915101B09152018D879E87AF87B88B5B
:100CD000AF8D6A2F70E090E080E00E9425104B01FC
:100CE0005C01B8A16B2F70E090E080E00E942510BD
:100CF000698B7A8B8B8B9C8B03E213E0F101219142
:100D00003191419151911F0169857A858B859C852F
:100D10000E944E1120E030E0A9010E94D50E2B0167
:100D20003C01D8015496CD90DD90ED90FC90579702
:100D3000F10120853185428553856D857E858F85BE
:100D400098890E944E11A30192010E94D50E2D890F
:100D50003E894F89588D0E944E112B013C01A701FD
:100D6000960160E070E080E89FE30E94D40EA70146
:100D700096010E944E119B01AC01C301B2010E9479
:100D80004E116B017C01A50194010E944E119B0143
:100D9000AC01D80118966D917D918D919C911B9716
:100DA0000E94D40EF8016087718782879387298912
:100DB0003A894B895C89C701B6010E944E119B019B
:100DC000AC01D8011C966D917D918D919C911F97DE
:100DD0000E94D40EF8016487758786879787A701DC
:100DE000960160897189828993890E94D40ED80105
:100DF00050966D937D938D939C935397085E1F4FF0
:100E0000E7E7F3E0E215F30509F078CF298D3A8D95
:100E10002E5F3F4F3A8F298F2352334009F01ECE69
:100E20002FE632E143E05BE36D897E898F89988DFF
:100E30000E94D40E60930401709305018093060113
:100E4000909307018FA198A5019698A78FA3A9A5B4
:100E5000BAA5A817B90709F0FDCDAA960FB6F89460
:100E6000DEBF0FBECDBFDF91CF911F910F91FF90DD
:100E7000EF90DF90CF90BF90AF909F908F907F903A
:100E80006F905F904F903F902F900895EAE7F0E0C9
:100E9000808187688083ECE7F0E0808180668083D2
:100EA000089590917C00987F90937C0090917C00B5
:100EB000892B80937C0080917A00806480937A00F3
:100EC00080917A0086FDFCCF8091790008958DB1E4
:100ED0008F7C8DB985E08A95F1F700006D9A759841
:100EE00085E08A95F1F700006C9A749885E08A9500
:100EF000F1F7000008956C9885E08A95F1F70000FD
:100F00006D9885E08A95F1F7000008956D9885E069
:100F10008A95F1F7000065990DC06C9885E08A9577
:100F2000F1F700006C9A749885E08A95F1F700005B
:100F3000659BF3CF6C9808956C9885E08A95F1F7DE
:100F400000006C9A749885E08A95F1F70000089586
:100F50001F93CF93DF93C82FD62F142F0E9486079D
:100F60000E94670787E013C06D9895E09A95F1F7A6
:100F700000006C9895E09A95F1F700006C9A7498CF
:100F800095E09A95F1F70000CC0F815029F0C6FD4D
:100F9000EBCF6D9A7598E9CF6D9A759885E08A9533
:100FA000F1F700006C9895E09A95F1F700006C9AC3
:100FB000749885E08A95F1F700006D9895E09A9510
:100FC000F1F700006C9865994BC085E08A95F1F7C0
:100FD00000006C9A749895E09A95F1F7000088E00B
:100FE00014C06D9A759895E09A95F1F700006C9889
:100FF00095E09A95F1F700006C9A749895E09A95AF
:10100000F1F70000DD0F815021F0D7FFEACF6D9896
:10101000EACF6D9885E08A95F1F700006C986599A4
:101020001AC095E09A95F1F700006C9A749885E0E3
:101030008A95F1F70000112351F06C9895E09A958C
:10104000F1F700006D9885E08A95F1F70000DF91D7
:10105000CF911F91089587E391E00E948A0AFFCF04
:101060008BE291E00E948A0AFFCFFC016623D1F156
:101070004FEF460F50E04F5F5F4F480F591F908171
:1010800028E016C06D9A759885E08A95F1F7000002
:101090006C9885E08A95F1F700006C9A749885E069
:1010A0008A95F1F700009081990F9083215021F0EB
:1010B00097FFE8CF6D98E8CF31966D9885E08A95D7
:1010C000F1F700006C98659918C085E08A95F1F7F2
:1010D00000006C9A749885E08A95F1F700004E172D
:1010E0005F0769F66C9885E08A95F1F700006D98C6
:1010F00085E08A95F1F70000089584E391E00E946D
:101100008A0AFFCF0F931F93CF93DF93082FEB0132
:10111000142F0E94670787E013C06D9895E09A9599
:10112000F1F700006C9895E09A95F1F700006C9A41
:10113000749895E09A95F1F70000000F815029F01E
:1011400006FDEBCF6D9A7598E9CF6D9885E08A958D
:10115000F1F700006C9895E09A95F1F700006C9A11
:10116000749885E08A95F1F700006D9895E09A955E
:10117000F1F700006C9865995AC085E08A95F1F7FF
:1011800000006C9A749895E09A95F1F700006D98BC
:1011900085E08A95F1F700001123B1F12FEF210FBF
:1011A00030E02F5F3F4F2C0F3D1F98E08881880F64
:1011B00088836C9885E08A95F1F70000659B03C0F1
:1011C00088818160888385E08A95F1F700006C9AB8
:1011D000749885E08A95F1F70000915039F76D9A7F
:1011E000759895E09A95F1F700006C9885E08A95DE
:1011F000F1F700006C9A749895E09A95F1F7000069
:1012000021962C173D0789F685E08A95F1F70000B5
:101210006C9895E09A95F1F700006D9885E08A95B5
:10122000F1F70000DF91CF911F910F9108958CE3AA
:1012300091E00E948A0AFFCFCF93DF931F92CDB730
:10124000DEB7498340E00E94A80761E0CE01019625
:101250000E9435080F90DF91CF9108951F93CF938F
:10126000DF931F92CDB7DEB7182F41E00E94A80789
:1012700041E0BE016F5F7F4F812F0E94820889810C
:101280000F90DF91CF911F91089561E08CE10C9454
:101290002E0963E08CE10C942E0965E08CE10C943E
:1012A0002E098AE08A95F1F700C0449A8AE08A956F
:1012B000F1F700C044988AE08A95F1F700C00895DC
:1012C000F89482B98AE08A95F1F700C0449A8AE0DE
:1012D0008A95F1F700C044988AE08A95F1F700C03A
:1012E000789408958F98F89482B98AE08A95F1F7F6
:1012F00000C0449A8AE08A95F1F700C044988AE0D9
:101300008A95F1F700C0789408958F9AF89482B97D
:101310008AE08A95F1F700C0449A8AE08A95F1F74D
:1013200000C044988AE08A95F1F700C07894089547
:10133000803110F4623008F008956E5F6295660F98
:10134000660F607C860F8F98F89482B98AE08A9540
:10135000F1F700C0449A8AE08A95F1F700C04498FA
:101360008AE08A95F1F700C0789485EC8A95F1F7C8
:10137000000008953C9A879A8FEF81B98FE19EE42F
:101380000197F1F700C000008F98F89488E382B9C4
:101390009AE09A95F1F700C0449AEAE0EA95F1F7ED
:1013A00000C04498FAE0FA95F1F700C07894EFE7AE
:1013B000F2E03197F1F700C000008F98F89482B9FD
:1013C000FAE0FA95F1F700C0449A9AE09A95F1F79D
:1013D00000C04498EAE0EA95F1F700C07894EFE79E
:1013E000F2E03197F1F700C000008F98F89482B9CD
:1013F000FAE0FA95F1F700C0449A9AE09A95F1F76D
:1014000000C04498EAE0EA95F1F700C07894EFE76D
:10141000F2E03197F1F700C000008F98F89498E05F
:1014200092B9FAE0FA95F1F700C0449A9AE09A95D9
:10143000F1F700C04498EAE0EA95F1F700C078942B
:10144000EFE7F2E03197F1F700C000008F98F894D1
:1014500091E092B9FAE0FA95F1F700C0449A9AE067
:101460009A95F1F700C04498EAE0EA95F1F700C0D8
:101470007894EFE7FEE33197F1F700C000008F9812
:10148000F89496E092B9FAE0FA95F1F700C0449A20
:101490009AE09A95F1F700C04498EAE0EA95F1F7EE
:1014A00000C07894EFE7F2E03197F1F700C0000058
:1014B0008F98F89482B9FAE0FA95F1F700C0449A4F
:1014C0008AE08A95F1F700C044989AE09A95F1F77E
:1014D00000C07894EFE8F1E03197F1F700C0000028
:1014E0008F98F8948CE082B9FAE0FA95F1F700C091
:1014F000449A8AE08A95F1F700C044989AE09A9558
:10150000F1F700C07894EFE8F1E03197F1F700C00F
:1015100000000895DC019C91992301F120E08F9A4D
:10152000F89492B98AE08A95F1F700C0449A9AE05B
:101530009A95F1F700C044988AE08A95F1F700C0C7
:1015400078948FE792E00197F1F700C000002F5FD9
:10155000FD01E20FF11D90819111E1CF08951F93DC
:10156000CF93DF939C01892B09F45AC045E011E029
:10157000EFE0F7E2CAE0D0E0C901BF016F5F7F4F43
:101580000E944B0E662349F1E217F30770F5605D88
:101590008F9AF89462B9BAE0BA95F1F700C0449A0C
:1015A0002AE02A95F1F700C04498AAE0AA95F1F73D
:1015B00000C07894AFE7B2E01197F1F700C00000E7
:1015C00010E09C01CF01BE010E945F0EFB01415063
:1015D00099F6DF91CF911F910895E217F30718F460
:1015E0001111EFCFD4CF1111EDCF605D8F9AF89428
:1015F00062B9BAE0BA95F1F700C0449A8AE08A95D8
:10160000F1F700C044989AE09A95F1F700C07894F9
:10161000AFE7B2E01197F1F700C0000010E0D2CFC1
:101620008F9AF89480E382B92AE02A95F1F700C0F6
:10163000449A8AE08A95F1F700C044989AE09A9516
:10164000F1F700C07894AFE7B2E01197F1F700C06E
:101650000000DF91CF911F9108958F98F89481E059
:1016600082B98AE08A95F1F700C0449A9AE09A9587
:10167000F1F700C044988AE08A95F1F700C07894A9
:101680008FE79EE30197F1F700C0000008955D9A8F
:101690005C980895382F262F4FEF6403C001112462
:1016A00064E670E00E945F0E311107C06093B300E2
:1016B000121664F45C9A5D98089567BD12161CF4C6
:1016C0005E9A5F9808955F9A5E9808950C94470B10
:1016D000CF93DF93C3EBD0E018820E94470B17BC77
:1016E0005F9A5E9884B1806984B98AB1806F8AB943
:1016F000E0EBF0E080818866808380818260808377
:1017000084B5886684BD84B5826084BD8AE087BD67
:101710008883DF91CF9108955C9A5D982C9A5F9AA7
:101720005E982F9A08951F920F920FB60F92112470
:101730002F933F934F935F938F939F93EF93FF93D9
:1017400040914A01542F5695852F90E021E030E0DA
:1017500001C0220F5A95EAF740FD27C0409188004A
:1017600050918900880F991FFC01E557FC4F80813B
:101770009181840F951F909389008093880088B190
:10178000282B28B980914A018F5F877080934A0186
:10179000FF91EF919F918F915F914F913F912F9189
:1017A0000F900FBE0F901F90189540918800509198
:1017B0008900880F991FFC01ED57FC4F80819181B2
:1017C000840F951F909389008093880088B120959D
:1017D000282328B9D7CF90E02AE0629FB0011124D6
:1017E0006C53764F880F991FFC01E557FC4F7183AE
:1017F00060838D579C4F24ED30E3261B370BFC0193
:10180000318320830895ABE8B3E024EC39E01196EE
:101810003C932E93E3E8F3E080E197E291838083A9
:1018200013963C932E9312979383828315963C9341
:101830002E9314979583848317963C932E93169733
:101840009783868387B18F6087B9E1E8F0E01082E3
:10185000808182608083EFE6F0E080818260808317
:10186000789408958CB18095881F8827881F0895E3
:10187000282F30E08E3010F080E00895F901ED5B04
:10188000F34F0C94920E600C600C6B0C6B0C760C8E
:101890007B0C7B0C7D0C7D0C7D0C880C510C510C51
:1018A0005C0C83B190E02950310902C09595879571
:1018B0002A95E2F78170089583B186958170089525
:1018C0002CB130E0A90102C0559547958A95E2F701
:1018D000CA018170089582B390E02F5F3F4F02C02C
:1018E000959587952A95E2F7817008958CB186FBCE
:1018F000882780F9089523B1E4CF86B190E0225083
:10190000310902C0959587952A95E2F7817008956F
:1019100083B181700895282F30E08E30B0F4F90142
:10192000EC56F34F0C94920EB50CB50CC10CC10CD7
:10193000CF0CE10CE10CD30CD30CD30CED0CA60CAA
:10194000A60CA20C611165C0219808952950310997
:1019500081E090E001C0880F2A95EAF794B16623F0
:1019600009F43FC0892B84B9089521E030E001C01B
:10197000220F8A95EAF78DB16623C9F1282B2DB97C
:1019800008952F5F3F4F81E090E001C0880F2A95B6
:10199000EAF793B3662379F1892B83BB0895662315
:1019A00091F16E9A08952250310981E090E001C0D2
:1019B000880F2A95EAF797B1662309F1892B87B931
:1019C000089521E030E001C0220F8A95EAF784B142
:1019D0006623D9F0282B24B90895662331F0209A84
:1019E00008958095892384B90895209808952095B5
:1019F00028232DB908958095892383BB0895809568
:101A0000892387B908956E9808952095282324B9CD
:101A10000895219A0895282F30E08E30B0F4F9010E
:101A2000EC5EF24F0C94920E350D350D410D410DCB
:101A30004F0D610D610D530D530D530D6D0D260DA1
:101A4000260D220D611165C029980895295031098C
:101A500081E090E001C0880F2A95EAF795B16623EE
:101A600009F43FC0892B85B9089521E030E001C019
:101A7000220F8A95EAF78EB16623C9F1282B2EB979
:101A800008952F5F3F4F81E090E001C0880F2A95B5
:101A9000EAF794B3662379F1892B84BB0895662312
:101AA00091F1769A08952250310981E090E001C0C9
:101AB000880F2A95EAF798B1662309F1892B88B92E
:101AC000089521E030E001C0220F8A95EAF785B140
:101AD0006623D9F0282B25B90895662331F0289A7A
:101AE00008958095892385B90895289808952095AB
:101AF00028232EB908958095892384BB0895809565
:101B0000892388B90895769808952095282325B9C2
:101B10000895299A0895811104C0613031F0A09888
:101B20000895613021F0A1980895A09A0895A19A8E
:101B30000895882311F0A19A0895A09A0895882302
:101B400011F0A1980895A0980895529A83B38360E4
:101B500083BB779A0E9446070E94BA090E94030C31
:101B60000E94680B41E06AE28CE10E941C092FEFA1
:101B700081EE94E0215080409040E1F700C00000E9
:101B80000C9486070E94A50D6FE780E00E94EB0B86
:101B90006FE781E00E94EB0B0E942D0B8CE091E03F
:101BA0000E948A0A02C00E94D2010E94320C88233D
:101BB000D1F32FEF83ED90E3215080409040E1F787
:101BC00000C000000E942D0B88E191E00E948A0A6B
:101BD00002C00E9461010E94320C8823D1F32FEFD2
:101BE00083ED90E3215080409040E1F700C0000079
:101BF0000E942D0B8DE191E00E948A0A0E9403024F
:101C00000E94C80282E390E00E9408050E942D0B0A
:101C100086E291E00E948A0A0E94320C8823E1F356
:101C20002FEF83ED90E3215080409040E1F700C01A
:101C3000000085E00E945107F82E84E00E945107C1
:101C4000682F8F2D0E94AC036B017C010E942D0B2D
:101C5000C6010E94AF0A61E080E00E949809C701B6
:101C60000E94AF0AB60180E00E94AB01B70181E09B
:101C70000E94AB01DECFDB018F939F930E94980EF1
:101C8000BF91AF91A29F800D911DA39F900DB29F18
:101C9000900D11240895AA1BBB1B51E107C0AA1F78
:101CA000BB1FA617B70710F0A61BB70B881F991FFD
:101CB0005A95A9F780959095BC01CD01089597FBA1
:101CC000072E16F4009407D077FD09D00E944B0E22
:101CD00007FC05D03EF4909581959F4F089570952F
:101CE00061957F4F0895052E97FB1EF400940E9486
:101CF0008A0E57FD07D00E94A30E07FC03D04EF4B6
:101D00000C948A0E50954095309521953F4F4F4F3A
:101D10005F4F089590958095709561957F4F8F4F97
:101D20009F4F0895EE0FFF1F0590F491E02D099449
:101D30000E94C50EA59F900DB49F900DA49F800D8D
:101D4000911D11240895A1E21A2EAA1BBB1BFD01AF
:101D50000DC0AA1FBB1FEE1FFF1FA217B307E4078A
:101D6000F50720F0A21BB30BE40BF50B661F771FE2
:101D7000881F991F1A9469F76095709580959095C2
:101D80009B01AC01BD01CF010895A29FB001B39F9B
:101D9000C001A39F700D811D1124911DB29F700D74
:101DA000811D1124911D08955058BB27AA270E9418
:101DB000EC0E0C949E100E94901038F00E94971028
:101DC00020F039F49F3F19F426F40C9466100EF4B9
:101DD000E095E7FB0C946010E92F0E94AF1058F3D8
:101DE000BA17620773078407950720F079F4A6F500
:101DF0000C94D1100EF4E0950B2EBA2FA02D0B01F0
:101E0000B90190010C01CA01A0011124FF27591B3F
:101E100099F0593F50F4503E68F11A16F040A22F45
:101E2000232F342F4427585FF3CF469537952795B6
:101E3000A795F0405395C9F77EF41F16BA0B620BB5
:101E4000730B840BBAF09150A1F0FF0FBB1F661FFC
:101E5000771F881FC2F70EC0BA0F621F731F841F3F
:101E600048F4879577956795B795F7959E3F08F065
:101E7000B0CF9395880F08F09927EE0F9795879527
:101E800008950E94550F0C949E100E94971058F0D0
:101E90000E94901040F029F45F3F29F00C946010EC
:101EA00051110C94D2100C9466100E94AF1068F37C
:101EB0009923B1F3552391F3951B550BBB27AA2703
:101EC00062177307840738F09F5F5F4F220F331F3D
:101ED000441FAA1FA9F335D00E2E3AF0E0E832D005
:101EE00091505040E695001CCAF72BD0FE2F29D008
:101EF000660F771F881FBB1F261737074807AB07DA
:101F0000B0E809F0BB0B802DBF01FF2793585F4F4E
:101F10003AF09E3F510578F00C9460100C94D2106A
:101F20005F3FE4F3983ED4F3869577956795B79530
:101F3000F7959F5FC9F7880F911D9695879597F93B
:101F40000895E1E0660F771F881FBB1F62177307B4
:101F50008407BA0720F0621B730B840BBA0BEE1FC9
:101F600088F7E095089529F416F00C9460100C940D
:101F7000D1100C9466100E94B710A8F39638A0F701
:101F800007F80F92E8942BE33AEA48EB5FE70E94E8
:101F900064110F920F920F924DB75EB70F920E948D
:101FA0001A11ECE5F0E00E9469104F915F91EF91FA
:101FB000FF91E595EE1FFF1F49F0FE57E0684427AB
:101FC000EE0F441FFA95E1F74195550B0E94E4107E
:101FD0000F9007FE0C94D81008950E94F40F689497
:101FE000B1110C94D21008950E94B71088F09F5739
:101FF00098F0B92F9927B751B0F0E1F0660F771F2D
:10200000881F991F1AF0BA95C9F714C0B13091F022
:102010000E94D110B1E008950C94D110672F782F51
:102020008827B85F39F0B93FCCF3869577956795E7
:10203000B395D9F73EF490958095709561957F4F53
:102040008F4F9F4F0895E89409C097FB3EF49095F9
:102050008095709561957F4F8F4F9F4F9923A9F081
:10206000F92F96E9BB279395F69587957795679510
:10207000B795F111F8CFFAF4BB0F11F460FF1BC054
:102080006F5F7F4F8F4F9F4F16C0882311F096E9E7
:1020900011C0772321F09EE8872F762F05C0662395
:1020A00071F096E8862F70E060E02AF09A95660F4E
:1020B000771F881FDAF7880F9695879597F9089507
:1020C00097F99F6780E870E060E008959FEF80ECEB
:1020D0000895DF93CF931F930F93FF92EF92DF92B8
:1020E0007B018C01689406C0DA2EEF010E94611119
:1020F000FE01E894A5912591359145915591A6F35E
:10210000EF010E94EC0EFE019701A801DA9469F735
:10211000DF90EF90FF900F911F91CF91DF91089585
:1021200000240A94161617061806090608950024B6
:102130000A9412161306140605060895092E039430
:10214000000C11F4882352F0BB0F40F4BF2B11F4A4
:1021500060FF04C06F5F7F4F8F4F9F4F089557FD03
:102160009058440F551F59F05F3F71F04795880F05
:1021700097FB991F61F09F3F79F08795089512169C
:1021800013061406551FF2CF4695F1DF08C0161648
:1021900017061806991FF1CF8695710561050894F9
:1021A0000895E894BB2766277727CB0197F9089510
:1021B0009B01AC0160E070E080E89FE30C94410F6C
:1021C0000C9460100C94BB110E94B710D8F39923A3
:1021D000C9F3940F511DA3F39150504094F059F05E
:1021E000882332F0660F771F881F91505040C1F747
:1021F0009E3F51052CF7880F911D9695879597F96D
:1022000008955F3FACF0983E9CF0BB27869577958C
:102210006795B79508F4B1609395C1F7BB0F58F770
:1022200011F460FFE8CF6F5F7F4F8F4F9F4FE3CF79
:102230000C94D210FA01DC01AA0FBB1F9B01AC0168
:10224000BF5728F4222733274427507820C0B7519E
:1022500090F4AB2F0024469537952795011CA39544
:10226000D2F3002071F0220F331F441FB395DAF32D
:102270000ED00C94D40E61307105A0E88A07B946DF
:1022800030F49B01AC016627772788279078309639
:1022900021F0208331834283538308950E9461118A
:1022A0000C949E100E94901038F00E94971020F01D
:1022B000952311F00C9460100C94661011240C946A
:1022C000D2100E94AF1070F3959FC1F3950F50E0AC
:1022D000551F629FF001729FBB27F00DB11D639FD8
:1022E000AA27F00DB11DAA1F649F6627B00DA11D7E
:1022F000661F829F2227B00DA11D621F739FB00D24
:10230000A11D621F839FA00D611D221F749F332793
:10231000A00D611D231F849F600D211D822F762F2C
:102320006A2F11249F5750409AF0F1F088234AF009
:10233000EE0FFF1FBB1F661F771F881F9150504075
:10234000A9F79E3F510580F00C9460100C94D210B8
:102350005F3FE4F3983ED4F3869577956795B795FC
:10236000F795E7959F5FC1F7FE2B880F911D969516
:10237000879597F908959F3F31F0915020F4879504
:1023800077956795B795880F911D9695879597F9DD
:1023900008958F929F92AF92BF92CF92DF92EF9269
:1023A000FF92CF93DF93EC01688179818A819B81D1
:1023B000611571058105910521F464E279ED8BE5E4
:1023C00097E02DE133EF41E050E00E94730E4901A8
:1023D0005A019B01AC01A7EAB1E40E94980E6B017F
:1023E0007C01ACEEB4EFA50194010E942812DC013F
:1023F000CB018C0D9D1DAE1DBF1DB7FF03C0019706
:10240000A109B04888839983AA83BB839F77DF9112
:10241000CF91FF90EF90DF90CF90BF90AF909F90C3
:102420008F9008950E94C911089588E091E00E945C
:10243000C9110895B0E0A0E08093080190930901CC
:10244000A0930A01B0930B010895B7FF0C94980E66
:0E2450000E94980E821B930B0895F894FFCF04
:10245E000AD7233D9A99993E0100000050726F7081
:10246E006F7274696E616C004461746100547261C4
:10247E00696E696E6700446F6E6500616464724ECA
:10248E0041434B0077725F4E41434B00726561646E
:06249E004E41434B00001B
:00000001FF
