:100000000C9442000C945F000C945F000C945F0011
:100010000C945F000C945F000C945F000C94CD0B6B
:100020000C945F000C945F000C945F000C945F00D4
:100030000C945F000C945F000C945F000C945F00C4
:100040000C945F000C945F000C945F000C945F00B4
:100050000C945F000C945F000C945F0007634236C1
:10006000B79BD8A71A39685618AEBAAB558C1D3C49
:10007000B7CC5763BD6DEDFD753EF6177231BF000D
:100080000000803F11241FBECFEFD0E1DEBFCDBF07
:1000900011E0A0E0B1E0E4E7F5E202C005900D92C6
:1000A000A834B107D9F723E0A8E4B1E001C01D925C
:1000B000A439B207E1F70E94FC0D0C94B8120C941D
:1000C00000004F925F926F927F92AF92BF92CF9259
:1000D000DF92EF92FF920F931F93CF93DF93CDB7F1
:1000E000DEB729013A019B01AC0124193509460903
:1000F000570989899A89AB89BC89BC01CD016A19E4
:100100007B098C099D090E949D0EA8019701241965
:100110003509460957090E94D50ECA01B9016A0D71
:100120007B1D8C1D9D1DDF91CF911F910F91FF9025
:10013000EF90DF90CF90BF90AF907F906F905F90E7
:100140004F9008954F925F926F927F92AF92BF92BD
:10015000CF92DF92EF92FF920F931F93CF93DF9393
:10016000CDB7DEB728970FB6F894DEBF0FBECDBF70
:1001700029013A01ED82FE820F8318870E94360F13
:1001800069837A838B839C83A6019501698D7A8D1F
:100190008B8D9C8D0E94360F9B01AC0169817A8109
:1001A0008B819C810E94B51169837A838B839C83A8
:1001B000A3019201C801B7010E94360F9B01AC0157
:1001C00069817A818B819C810E94A30FA601950190
:1001D0000E94370F28960FB6F894DEBF0FBECDBF32
:1001E000DF91CF911F910F91FF90EF90DF90CF9013
:1001F000BF90AF907F906F905F904F9008958F92D7
:100200009F92AF92BF92CF92DF92EF92FF92CF93E5
:10021000DF93282F261B330BE90180900401909077
:100220000501A0900601B090070166277727621BA1
:10023000730B072E000C880B990B0E948710A501E9
:1002400094010E94B51120E030E040EA51E40E94A0
:10025000370F0E944F1077FF02C070E060E06536F4
:10026000710514F064E670E06B01BE01DD0F880BD0
:10027000990B0E948710A50194010E94B51120E0FE
:1002800030E040EA51E40E94370F0E944F1077FFA0
:1002900002C070E060E06536710514F064E670E05D
:1002A000CB01B601DF91CF91FF90EF90DF90CF901F
:1002B000BF90AF909F908F900895CF93DF938091E0
:1002C000490190914A01883C910524F010924A011D
:1002D0001092490185E00E948B07D82F84E00E948C
:1002E0008B07C82F0E94670B60E080E00E94D20954
:1002F0008091490190914A010E94E90A61E080E001
:100300000E94D2098D2F90E00E94E90A61E084E00A
:100310000E94D2098C2F90E00E94E90A8091490145
:1003200090914A01FC01EE0FFF1FEC56FE4FD08367
:10033000C183019690934A01809349018FE39CE920
:100340000197F1F700C00000DF91CF910895CF939E
:10035000C82F61157105D9F09B01770F440B550B20
:100360002C593F4F4F4F5F4FACE3B0E00E94FA0E65
:1003700028EC30E040E050E00E94D50E61E6620FCC
:10038000CC2341F0619581E0CF910C94250C6FE76F
:10039000C111F8CF80E0CF910C94250CCF92DF9261
:1003A000EF92FF92CF9385E00E948B07C82F84E0E5
:1003B0000E948B07682F8FE08C0F0E94FF007C014A
:1003C00080E00E94A701B70181E0CF91FF90EF90FC
:1003D000DF90CF900C94A7010E94A01264E670E019
:1003E0000E94C10EBC01990F880B990B0E948710C7
:1003F00020E030E048EC52E40E94A30F08958F9271
:100400009F92AF92BF92CF92DF92EF92FF920F93A3
:100410001F93CF93DF93C4E2D3E004E610E0609132
:10042000940170E090E080E00E94851020E030E0D0
:100430004FE753E40E94A30F20E030E0A9010E949F
:10044000370F688379838A839B836091950170E07D
:1004500090E080E00E94851020E030E04FE753E418
:100460000E94A30F20E030E0A9010E94370F6C83A7
:100470007D838E839F830E94A012B8010E94C10ECB
:10048000BC01990F880B990B0E94871020E030E087
:1004900048EC52E40E94A30F688779878A879B877C
:1004A0000E94A012B8010E94C10EBC01990F880BD6
:1004B000990B0E94871020E030E048EC52E40E9443
:1004C000A30F6C877D878E879F870E94A012B8013B
:1004D0000E94C10EBC01990F880B990B0E948710D6
:1004E00020E030E048EC52E40E94A30F6B017C0155
:1004F000C88AD98AEA8AFB8A288539854A855B8534
:10050000688179818A819B810E94B5114B015C01D0
:100510002C853D854E855F856C817D818E819F8197
:100520000E94B5119B01AC01C501B4010E94370FB7
:10053000A70196010E94370F90580E941D1020E0DD
:1005400030E040E85FE30E94370F9B01AC0160E0C0
:1005500070E080E89FE30E94A30F6C8B7D8B8E8BF5
:100560009F8B689683E0CC36D80709F058CFDF918F
:10057000CF911F910F91FF90EF90DF90CF90BF90A0
:10058000AF909F908F9008958F929F92AF92BF925D
:10059000CF92DF92EF92FF920F931F93CF93DF934F
:1005A000C4E5D1E004E610E080913803909139036E
:1005B000A0913A03B0913B0388839983AA83BB83BC
:1005C0008091500390915103A0915203B091530335
:1005D0008C839D83AE83BF83809168039091690370
:1005E000A0916A03B0916B0388879987AA87BB871C
:1005F0000E94A012B8010E94C10EBC01990F880B85
:10060000990B0E94871020E030E048EC52E40E94F1
:10061000A30F6C877D878E879F870E94A012B801E9
:100620000E94C10EBC01990F880B990B0E94871084
:1006300020E030E048EC52E40E94A30F688B798BF5
:100640008A8B9B8B0E94A012B8010E94C10EBC0134
:10065000990F880B990B0E94871020E030E048EC3E
:1006600052E40E94A30F6C8B7D8B8E8B9F8B0E941C
:10067000A012B8010E94C10EBC01990F880B990B02
:100680000E94871020E030E048EC52E40E94A30F63
:100690006B017C01C88ED98EEA8EFB8E2C853D8540
:1006A0004E855F85688179818A819B810E94B51121
:1006B0004B015C01288939894A895B896C817D817C
:1006C0008E819F810E94B5119B01AC01C501B401CF
:1006D0000E94370F4B015C012C893D894E895F894F
:1006E000688579858A859B850E94B5119B01AC013F
:1006F000C501B4010E94370FA70196010E94370F70
:1007000090580E941D1020E030E040E85FE30E9416
:10071000370F9B01AC0160E070E080E89FE30E942E
:10072000A30F6C8F7D8F8E8F9F8FA09681E0C43931
:10073000D80709F039CFDF91CF911F910F91FF902A
:10074000EF90DF90CF90BF90AF909F908F900895E3
:100750004F925F926F927F928F929F92AF92BF92D1
:10076000CF92DF92EF92FF92CF93DF9300D000D031
:1007700000D0CDB7DEB76983682F70E090E080E0ED
:100780000E94851020E030E04FE753E40E94A30F61
:1007900020E030E0A9010E94370F4B015C01298164
:1007A000622F70E090E080E00E94851020E030E051
:1007B0004FE753E40E94A30F20E030E0A9010E941C
:1007C000370F6B017C0184E293E09A838983A981CE
:1007D000BA818D929D92AD92BC921397FD01C48215
:1007E000D582E682F7822085318542855385C50111
:1007F000B4010E94B5112B013C01A981BA811C965C
:100800002D913D914D915C911F97C701B6010E94BA
:10081000B5119B01AC01C301B2010E94370FE98100
:10082000FA8120893189428953890E94370F905873
:100830000E941D1020E030E040E85FE30E94370F87
:100840009B01AC0160E070E080E89FE30E94A30F91
:10085000A981BA8154966D937D938D939C935797FC
:100860005896BA83A983AC56B34009F0B0CF8090B4
:10087000380390903903A0903A03B0903B03C090A6
:100880005003D0905103E0905203F09053038091B5
:10089000680390916903A0916A03B0916B03898307
:1008A0009A83AB83BC83A4E5B1E0BE83AD83ED81C5
:1008B000FE8180829182A282B382C482D582E68246
:1008C000F78289819A81AB81BC8180879187A287D9
:1008D000B3872485358546855785C501B4010E94B7
:1008E000B5112B013C01AD81BE8150962D913D91FA
:1008F0004D915C915397C701B6010E94B5119B01C0
:10090000AC01C301B2010E94370F2B013C01ED8104
:10091000FE81248935894689578969817A818B814D
:100920009C810E94B5119B01AC01C301B2010E94E0
:10093000370FAD81BE8158962D913D914D915C91BF
:100940005B970E94370F90580E941D1020E030E006
:1009500040E85FE30E94370F9B01AC0160E070E06C
:1009600080E89FE30E94A30FED81FE81648F758F65
:10097000868F978FB096FE83ED83E459F14009F09E
:1009800096CF20E030E048EC52E460919001709105
:10099000910180919201909193010E94B51120E004
:1009A00030E0A9010E94370F0E944F106B0120E038
:1009B00030E048EC52E460917001709171018091D7
:1009C0007201909173010E94B51120E030E0A901FD
:1009D0000E94370F0E944F104B01B401C6012696AA
:1009E0000FB6F894DEBF0FBECDBFDF91CF91FF9061
:1009F000EF90DF90CF90BF90AF909F908F907F90BF
:100A00006F905F904F9008952F923F924F925F9218
:100A10006F927F928F929F92AF92BF92CF92DF920E
:100A2000EF92FF920F931F93CF93DF93CDB7DEB773
:100A3000AA970FB6F894DEBF0FBECDBF18161906E1
:100A40000CF013C29AA789A718A61FA224E931E0C7
:100A50003A8F298FA98DBA8DBC91BF8FE98DFA8D00
:100A6000F181F8A36F2F8B2F0E94A80368A18F8DAF
:100A70000E94FF007C01072E000C880B990B0E943E
:100A8000871020E030E048EC52E40E94A30F20E001
:100A900030E0A9010E94370F6B8F7C8F8D8F9E8F66
:100AA000B701FF0C880B990B0E94871020E030E003
:100AB00048EC52E40E94A30F20E030E0A9010E941C
:100AC000370F2B8D3C8D4D8D5E8D29833A834B8363
:100AD0005C836D837E838F839887809100019091E2
:100AE0000101A0910201B09103018D8B9E8BAF8B10
:100AF000B88F04E511E08CE6282E83E0382EACE4B4
:100B0000B1E0BA8BA98BFE013596FEA3EDA33A8620
:100B10002986D8011C968D919D910D90BC91A02D98
:100B20008D879E87AF87B88BE985FA85808391830F
:100B3000A283B383D80150968D909D90AD90BC90C8
:100B4000539784829582A682B78254964D905D9089
:100B50006D907C9057974086518662867386F80127
:100B6000C48CD58CE68CF78CA701960160E070E010
:100B700080E89FE30E94360FA70196010E94B511FD
:100B800069A37AA38BA39CA32B8D3C8D4D8D5E8D89
:100B9000C701B6010E94360F9B01AC0169A17AA181
:100BA0008BA19CA10E94B511A989BA896D937D93EF
:100BB0008D939D93BA8BA98B2D893E894F89588D32
:100BC0000E94B5116B017C01F801208131814281C5
:100BD00053810E94B5119B01AC016D857E858F8587
:100BE00098890E94360FD8011C966D937D938D9342
:100BF0009C931F9714962D913D914D915C91179761
:100C0000C701B6010E94B5119B01AC01C501B40139
:100C10000E94360FF801608B718B828B938B20853D
:100C2000318542855385C701B6010E94B5119B01EC
:100C3000AC01C301B2010E94360FD80154966D93E6
:100C40007D938D939C935797A701960158966D912C
:100C50007D918D919C915B970E94360FF801608F7A
:100C6000718F828F938F005E1F4F29853A85245F95
:100C70003F4F3A87298731E00439130769F0EDA126
:100C8000FEA181919191A191B191FEA3EDA38B8FD2
:100C90009C8FAD8FBE8F3DCF20914C0130914D0187
:100CA00040914E0150914F0129873A874B875C87CD
:100CB0008091500190915101A0915201B091530146
:100CC0008D879E87AF87B88BAF8D6A2F70E090E0DD
:100CD00080E00E9487104B015C01B8A16B2F70E08F
:100CE00090E080E00E948710698B7A8B8B8B9C8BC5
:100CF00004E213E0F10121913191419151911F01E1
:100D000069857A858B859C850E94B51120E030E04D
:100D1000A9010E94370F2B013C01D8015496CD90B8
:100D2000DD90ED90FC905797F1012085318542854B
:100D300053856D857E858F8598890E94B511A301A5
:100D400092010E94370F2D893E894F89588D0E944C
:100D5000B5112B013C01A701960160E070E080E82D
:100D60009FE30E94360FA70196010E94B5119B01D7
:100D7000AC01C301B2010E94B5116B017C01A50158
:100D800094010E94B5119B01AC01D80118966D9198
:100D90007D918D919C911B970E94360FF801608781
:100DA00071878287938729893A894B895C89C70132
:100DB000B6010E94B5119B01AC01D8011C966D9142
:100DC0007D918D919C911F970E94360FF801648749
:100DD000758786879787A7019601608971898289BF
:100DE00093890E94360FD80150966D937D938D9311
:100DF0009C935397085E1F4FE8E7F3E0E215F30575
:100E000009F078CF298D3A8D2E5F3F4F3A8F298F89
:100E10002452334009F01ECE2AE037ED43EA5BE36B
:100E20006D897E898F89988D0E943A11181694F4E5
:100E30002FE632E143E05BE36D897E898F89988DEF
:100E40000E94360F609300017093010180930201AC
:100E5000909303018FA198A5019698A78FA3A9A5A8
:100E6000BAA5A817B90709F0F1CDAA960FB6F8945C
:100E7000DEBF0FBECDBFDF91CF911F910F91FF90CD
:100E8000EF90DF90CF90BF90AF909F908F907F902A
:100E90006F905F904F903F902F900895CF93DF9386
:100EA000C9E1D0E019C0219661E080E00E94D2093A
:100EB000CE010E94E90A8CE091E00E94C40A2FEF63
:100EC00081EE94E0215080409040E1F700C00000A6
:100ED0000E946C0C813081F00E9483091C161D0653
:100EE00014F0C1E0D0E093E2980F9831E0F28B501B
:100EF0008133D0F62197D8CFCE01DF91CF910895DD
:100F0000EAE7F0E0808187688083ECE7F0E08081A9
:100F100080668083089590917C00987F90937C00F8
:100F200090917C00892B80937C0080917A00806472
:100F300080937A0080917A0086FDFCCF80917900C1
:100F400008958DB18F7C8DB985E08A95F1F7000009
:100F50006D9A759885E08A95F1F700006C9A7498FF
:100F600085E08A95F1F7000008956C9885E08A95F0
:100F7000F1F700006D9885E08A95F1F7000008957B
:100F80006D9885E08A95F1F7000065990DC06C9821
:100F900085E08A95F1F700006C9A749885E08A954F
:100FA000F1F70000659BF3CF6C9808956C9885E08D
:100FB0008A95F1F700006C9A749885E08A95F1F7AC
:100FC000000008951F93CF93DF93C82FD62F142FBF
:100FD0000E94C0070E94A10787E013C06D9895E0AA
:100FE0009A95F1F700006C9895E09A95F1F700005A
:100FF0006C9A749895E09A95F1F70000CC0F8150A7
:1010000029F0C6FDEBCF6D9A7598E9CF6D9A75986A
:1010100085E08A95F1F700006C9895E09A95F1F7D4
:1010200000006C9A749885E08A95F1F700006D983D
:1010300095E09A95F1F700006C9865994BC085E0B2
:101040008A95F1F700006C9A749895E09A95F1F7FB
:10105000000088E014C06D9A759895E09A95F1F7B4
:1010600000006C9895E09A95F1F700006C9A7498DE
:1010700095E09A95F1F70000DD0F815021F0D7FF40
:10108000EACF6D98EACF6D9885E08A95F1F7000078
:101090006C9865991AC095E09A95F1F700006C9AE2
:1010A000749885E08A95F1F70000112351F06C984F
:1010B00095E09A95F1F700006D9885E08A95F1F733
:1010C0000000DF91CF911F91089589E391E00E9484
:1010D000C40AFFCF8DE291E00E94C40AFFCFFC0159
:1010E0006623D1F14FEF460F50E04F5F5F4F480F3F
:1010F000591F908128E016C06D9A759885E08A95F1
:10110000F1F700006C9885E08A95F1F700006C9A81
:10111000749885E08A95F1F700009081990F90838B
:10112000215021F097FFE8CF6D98E8CF31966D9868
:1011300085E08A95F1F700006C98659918C085E004
:101140008A95F1F700006C9A749885E08A95F1F71A
:1011500000004E175F0769F66C9885E08A95F1F7F5
:1011600000006D9885E08A95F1F70000089586E308
:1011700091E00E94C40AFFCF0F931F93CF93DF9398
:10118000082FEB01142F0E94A10787E013C06D9870
:1011900095E09A95F1F700006C9895E09A95F1F733
:1011A00000006C9A749895E09A95F1F70000000F92
:1011B000815029F006FDEBCF6D9A7598E9CF6D98B7
:1011C00085E08A95F1F700006C9895E09A95F1F723
:1011D00000006C9A749885E08A95F1F700006D988C
:1011E00095E09A95F1F700006C9865995AC085E0F2
:1011F0008A95F1F700006C9A749895E09A95F1F74A
:1012000000006D9885E08A95F1F700001123B1F197
:101210002FEF210F30E02F5F3F4F2C0F3D1F98E045
:101220008881880F88836C9885E08A95F1F70000A3
:10123000659B03C088818160888385E08A95F1F78A
:1012400000006C9A749885E08A95F1F7000091503F
:1012500039F76D9A759895E09A95F1F700006C98BA
:1012600085E08A95F1F700006C9A749895E09A955C
:10127000F1F7000021962C173D0789F685E08A9545
:10128000F1F700006C9895E09A95F1F700006D98E1
:1012900085E08A95F1F70000DF91CF911F910F91C2
:1012A00008958EE391E00E94C40AFFCFCF93DF93AD
:1012B0001F92CDB7DEB7498340E00E94E20761E0AC
:1012C000CE0101960E946F080F90DF91CF91089593
:1012D0001F93CF93DF931F92CDB7DEB7182F41E056
:1012E0000E94E20741E0BE016F5F7F4F812F0E94A5
:1012F000BC0889810F90DF91CF911F91089561E023
:101300008CE10C94680963E08CE10C94680965E059
:101310008CE10C9468098AE08A95F1F700C0449A40
:101320008AE08A95F1F700C044988AE08A95F1F73F
:1013300000C00895F89482B98AE08A95F1F700C058
:10134000449A8AE08A95F1F700C044988AE08A9529
:10135000F1F700C0789408958F98F89482B98AE0E4
:101360008A95F1F700C0449A8AE08A95F1F700C0A7
:1013700044988AE08A95F1F700C0789408958F9A8E
:10138000F89482B98AE08A95F1F700C0449A8AE01D
:101390008A95F1F700C044988AE08A95F1F700C079
:1013A00078940895803110F4623008F008956E5FEB
:1013B0006295660F660F607C860F8F98F89482B9ED
:1013C0008AE08A95F1F700C0449A8AE08A95F1F79D
:1013D00000C044988AE08A95F1F700C0789485ECC3
:1013E0008A95F1F7000008953C9A879A8FEF81B9AA
:1013F0008FE19EE40197F1F700C000008F98F89408
:1014000088E382B99AE09A95F1F700C0449AEAE03D
:10141000EA95F1F700C04498FAE0FA95F1F700C0B8
:101420007894EFE7F2E03197F1F700C000008F9871
:10143000F89482B9FAE0FA95F1F700C0449A9AE07C
:101440009A95F1F700C04498EAE0EA95F1F700C0F8
:101450007894EFE7F2E03197F1F700C000008F9841
:10146000F89482B9FAE0FA95F1F700C0449A9AE04C
:101470009A95F1F700C04498EAE0EA95F1F700C0C8
:101480007894EFE7F2E03197F1F700C000008F9811
:10149000F89498E092B9FAE0FA95F1F700C0449A0E
:1014A0009AE09A95F1F700C04498EAE0EA95F1F7DE
:1014B00000C07894EFE7F2E03197F1F700C0000048
:1014C0008F98F89491E092B9FAE0FA95F1F700C09C
:1014D000449A9AE09A95F1F700C04498EAE0EA95B8
:1014E000F1F700C07894EFE7FEE33197F1F700C021
:1014F00000008F98F89496E092B9FAE0FA95F1F727
:1015000000C0449A9AE09A95F1F700C04498EAE046
:10151000EA95F1F700C07894EFE7F2E03197F1F740
:1015200000C000008F98F89482B9FAE0FA95F1F7BC
:1015300000C0449A8AE08A95F1F700C044989AE086
:101540009A95F1F700C07894EFE8F1E03197F1F760
:1015500000C000008F98F8948CE082B9FAE0FA9508
:10156000F1F700C0449A8AE08A95F1F700C04498E8
:101570009AE09A95F1F700C07894EFE8F1E031979E
:10158000F1F700C000000895DC019C91992301F15E
:1015900020E08F9AF89492B98AE08A95F1F700C01A
:1015A000449A9AE09A95F1F700C044988AE08A95A7
:1015B000F1F700C078948FE792E00197F1F700C04F
:1015C00000002F5FFD01E20FF11D90819111E1CF2D
:1015D00008951F93CF93DF939C01892B09F45AC080
:1015E00045E011E0EFE0F7E2CAE0D0E0C901BF0159
:1015F0006F5F7F4F0E94AD0E662349F1E217F3073C
:1016000070F5605D8F9AF89462B9BAE0BA95F1F717
:1016100000C0449A2AE02A95F1F700C04498AAE055
:10162000AA95F1F700C07894AFE7B2E01197F1F70F
:1016300000C0000010E09C01CF01BE010E94C10E5D
:10164000FB01415099F6DF91CF911F910895E21768
:10165000F30718F41111EFCFD4CF1111EDCF605D66
:101660008F9AF89462B9BAE0BA95F1F700C0449A3B
:101670008AE08A95F1F700C044989AE09A95F1F7CC
:1016800000C07894AFE7B2E01197F1F700C0000016
:1016900010E0D2CF8F9AF89480E382B92AE02A959D
:1016A000F1F700C0449A8AE08A95F1F700C04498A7
:1016B0009AE09A95F1F700C07894AFE7B2E01197FD
:1016C000F1F700C00000DF91CF911F9108958F982E
:1016D000F89481E082B98AE08A95F1F700C0449AD3
:1016E0009AE09A95F1F700C044988AE08A95F1F75C
:1016F00000C078948FE79EE30197F1F700C00000E7
:1017000008955D9A5C980895382F262F4FEF640353
:10171000C001112464E670E00E94C10E311107C0BF
:101720006093B300121664F45C9A5D98089567BDE7
:1017300012161CF45E9A5F9808955F9A5E98089559
:101740000C94810BCF93DF93C3EBD0E018820E94FF
:10175000810B17BC5F9A5E9884B1806984B98AB1A5
:10176000806F8AB9E0EBF0E08081886680838081B9
:101770008260808384B5886684BD84B5826084BDC0
:101780008AE087BD8883DF91CF9108955C9A5D9848
:101790002C9A5F9A5E982F9A08951F920F920FB617
:1017A0000F9211242F933F934F935F938F939F93A7
:1017B000EF93FF9340914B01542F5695852F90E066
:1017C00021E030E001C0220F5A95EAF740FD27C022
:1017D0004091880050918900880F991FFC01E457BF
:1017E000FC4F80819181840F951F90938900809395
:1017F000880088B1282B28B980914B018F5F8770B2
:1018000080934B01FF91EF919F918F915F914F9149
:101810003F912F910F900FBE0F901F901895409100
:10182000880050918900880F991FFC01EC57FC4FEC
:1018300080819181840F951F909389008093880007
:1018400088B12095282328B9D7CF90E02AE0629F5D
:10185000B00111246C53764F880F991FFC01E45797
:10186000FC4F718360838C579C4F24ED30E3261B23
:10187000370BFC01318320830895ACE8B3E024ECFE
:1018800039E011963C932E93E4E8F3E080E197E28F
:101890009183808313963C932E9312979383828334
:1018A00015963C932E9314979583848317963C93B7
:1018B0002E9316979783868387B18F6087B9E1E867
:1018C000F0E01082808182608083EFE6F0E080812A
:1018D00082608083789408958CB18095881F8827D2
:1018E000881F0895282F30E08E3010F080E0089592
:1018F000F901E358F34F0C94F40E9A0C9A0CA50CD2
:10190000A50CB00CB50CB50CB70CB70CB70CC20CD1
:101910008B0C8B0C960C83B190E02950310902C0DE
:10192000959587952A95E2F78170089583B18695FC
:10193000817008952CB130E0A90102C055954795FA
:101940008A95E2F7CA018170089582B390E02F5F13
:101950003F4F02C0959587952A95E2F781700895CB
:101960008CB186FB882780F9089523B1E4CF86B136
:1019700090E02250310902C0959587952A95E2F7AB
:101980008170089583B181700895282F30E08E30E2
:10199000B0F4F901E253F34F0C94F40EEF0CEF0C9A
:1019A000FB0CFB0C090D1B0D1B0D0D0D0D0D0D0D75
:1019B000270DE00CE00CDC0C611165C02198089546
:1019C0002950310981E090E001C0880F2A95EAF79B
:1019D00094B1662309F43FC0892B84B9089521E0AE
:1019E00030E001C0220F8A95EAF78DB16623C9F174
:1019F000282B2DB908952F5F3F4F81E090E001C063
:101A0000880F2A95EAF793B3662379F1892B83BB74
:101A10000895662391F16E9A08952250310981E06C
:101A200090E001C0880F2A95EAF797B1662309F183
:101A3000892B87B9089521E030E001C0220F8A95F3
:101A4000EAF784B16623D9F0282B24B908956623D8
:101A500031F0209A08958095892384B908952098BB
:101A60000895209528232DB908958095892383BB57
:101A700008958095892387B908956E9808952095D3
:101A8000282324B90895219A0895282F30E08E3014
:101A9000B0F4F901E25BF24F0C94F40E6F0D6F0D90
:101AA0007B0D7B0D890D9B0D9B0D8D0D8D0D8D0D72
:101AB000A70D600D600D5C0D611165C0299808953A
:101AC0002950310981E090E001C0880F2A95EAF79A
:101AD00095B1662309F43FC0892B85B9089521E0AB
:101AE00030E001C0220F8A95EAF78EB16623C9F172
:101AF000282B2EB908952F5F3F4F81E090E001C061
:101B0000880F2A95EAF794B3662379F1892B84BB71
:101B10000895662391F1769A08952250310981E063
:101B200090E001C0880F2A95EAF798B1662309F181
:101B3000892B88B9089521E030E001C0220F8A95F1
:101B4000EAF785B16623D9F0282B25B908956623D5
:101B500031F0289A08958095892385B908952898A9
:101B60000895209528232EB908958095892384BB54
:101B700008958095892388B90895769808952095C9
:101B8000282325B90895299A0895811104C0613048
:101B900031F0A0980895613021F0A1980895A09A9D
:101BA0000895A19A0895882311F0A19A0895A09A02
:101BB0000895882311F0A1980895A0980895529A45
:101BC00083B3836083BB779A0E9480070E94F409E5
:101BD0000E943D0C0E94A20B41E06AE28CE10E944F
:101BE00056092FEF81EE94E0215080409040E1F7BC
:101BF00000C000000C94C0070E94DF0D6FE780E07A
:101C00000E94250C6FE781E00E94250C0E94670B63
:101C10008EE091E00E94C40A0E946C0C811106C003
:101C20000E94CE010E946C0C8823D1F36FE780E004
:101C30000E94250C6FE781E00E94250C2FEF89E6BA
:101C400098E1215080409040E1F700C000000E94E0
:101C5000670B8AE191E00E94C40A0E946C0C81111A
:101C600006C00E945D010E946C0C8823D1F32FEF07
:101C700089E698E1215080409040E1F700C00000E3
:101C80000E94FF010E94C402809148018823C9F18B
:101C900085E00E948B07F82E84E00E948B07682F56
:101CA0008F2D0E94A8036B017C010E94670BC60167
:101CB0000E94E90A61E080E00E94D209C7010E9407
:101CC000E90AB60180E00E94A701B70181E00E9405
:101CD000A7010E946C0C8823B9F281E09091480121
:101CE000911180E0809348012FEF89E698E121501F
:101CF00080409040E1F700C00000809148018111D0
:101D0000C7CF0E94670B8FE191E00E94C40A0E9436
:101D10004E070E94040581E090914801911180E0F6
:101D2000809348010E94670B88E291E00E94C40AF8
:101D30000E946C0C8823E1F3D7CFDB018F939F9334
:101D40000E94FA0EBF91AF91A29F800D911DA39F9B
:101D5000900DB29F900D11240895AA1BBB1B51E159
:101D600007C0AA1FBB1FA617B70710F0A61BB70B0B
:101D7000881F991F5A95A9F780959095BC01CD01B0
:101D8000089597FB072E16F4009407D077FD09D02D
:101D90000E94AD0E07FC05D03EF4909581959F4FB3
:101DA0000895709561957F4F0895052E97FB1EF459
:101DB00000940E94EC0E57FD07D00E94050F07FC0F
:101DC00003D04EF40C94EC0E50954095309521952F
:101DD0003F4F4F4F5F4F0895909580957095619557
:101DE0007F4F8F4F9F4F0895EE0FFF1F0590F49187
:101DF000E02D09940E94270FA59F900DB49F900D90
:101E0000A49F800D911D11240895A1E21A2EAA1BF2
:101E1000BB1BFD010DC0AA1FBB1FEE1FFF1FA2179A
:101E2000B307E407F50720F0A21BB30BE40BF50B97
:101E3000661F771F881F991F1A9469F76095709520
:101E4000809590959B01AC01BD01CF010895A29FA3
:101E5000B001B39FC001A39F700D811D1124911D7E
:101E6000B29F700D811D1124911D08955058BB27FC
:101E7000AA270E944E0F0C9400110E94F21038F015
:101E80000E94F91020F039F49F3F19F426F40C94C5
:101E9000C8100EF4E095E7FB0C94C210E92F0E94E5
:101EA000111158F3BA17620773078407950720F0DA
:101EB00079F4A6F50C9433110EF4E0950B2EBA2F9D
:101EC000A02D0B01B90190010C01CA01A001112440
:101ED000FF27591B99F0593F50F4503E68F11A16EC
:101EE000F040A22F232F342F4427585FF3CF46957D
:101EF00037952795A795F0405395C9F77EF41F169F
:101F0000BA0B620B730B840BBAF09150A1F0FF0F68
:101F1000BB1F661F771F881FC2F70EC0BA0F621F54
:101F2000731F841F48F4879577956795B795F79544
:101F30009E3F08F0B0CF9395880F08F09927EE0FD9
:101F40009795879508950E94B70F0C9400110E94F1
:101F5000F91058F00E94F21040F029F45F3F29F088
:101F60000C94C21051110C9434110C94C8100E949E
:101F7000111168F39923B1F3552391F3951B550B78
:101F8000BB27AA2762177307840738F09F5F5F4F4C
:101F9000220F331F441FAA1FA9F335D00E2E3AF08B
:101FA000E0E832D091505040E695001CCAF72BD0A3
:101FB000FE2F29D0660F771F881FBB1F26173707F4
:101FC0004807AB07B0E809F0BB0B802DBF01FF2726
:101FD00093585F4F3AF09E3F510578F00C94C21031
:101FE0000C9434115F3FE4F3983ED4F386957795D3
:101FF0006795B795F7959F5FC9F7880F911D9695DF
:10200000879597F90895E1E0660F771F881FBB1F3A
:10201000621773078407BA0720F0621B730B840BE7
:10202000BA0BEE1F88F7E095089529F416F00C948A
:10203000C2100C9433110C94C8100E941911A8F30B
:102040009638A0F707F80F92E8942BE33AEA48EBAA
:102050005FE70E94CB110F920F920F924DB75EB7C0
:102060000F920E948111ECE5F0E00E94CB104F919D
:102070005F91EF91FF91E595EE1FFF1F49F0FE572D
:10208000E0684427EE0F441FFA95E1F74195550BA0
:102090000E944B110F9007FE0C943F1108950E946F
:1020A00056106894B1110C94341108950E941911BE
:1020B00088F09F5798F0B92F9927B751B0F0E1F009
:1020C000660F771F881F991F1AF0BA95C9F714C0B9
:1020D000B13091F00E943311B1E008950C943311A6
:1020E000672F782F8827B85F39F0B93FCCF38695F2
:1020F00077956795B395D9F73EF49095809570954F
:1021000061957F4F8F4F9F4F0895E89409C097FBCB
:102110003EF490958095709561957F4F8F4F9F4FBE
:102120009923A9F0F92F96E9BB279395F695879502
:1021300077956795B795F111F8CFFAF4BB0F11F4C5
:1021400060FF1BC06F5F7F4F8F4F9F4F16C088236C
:1021500011F096E911C0772321F09EE8872F762FA2
:1021600005C0662371F096E8862F70E060E02AF0E3
:102170009A95660F771F881FDAF7880F96958795CF
:1021800097F9089597F99F6780E870E060E00895F7
:102190009FEF80EC0895DF93CF931F930F93FF92EF
:1021A000EF92DF927B018C01689406C0DA2EEF017A
:1021B0000E94C811FE01E894A591259135914591A1
:1021C0005591A6F3EF010E944E0FFE019701A80161
:1021D000DA9469F7DF90EF90FF900F911F91CF9104
:1021E000DF91089500240A941616170618060906AA
:1021F000089500240A94121613061406050608957D
:10220000092E0394000C11F4882352F0BB0F40F404
:10221000BF2B11F460FF04C06F5F7F4F8F4F9F4F44
:10222000089557FD9058440F551F59F05F3F71F0C6
:102230004795880F97FB991F61F09F3F79F087952D
:102240000895121613061406551FF2CF4695F1DFB6
:1022500008C0161617061806991FF1CF8695710546
:10226000610508940895E894BB2766277727CB017A
:1022700097F908950E94221208F48FEF08959B01A8
:10228000AC0160E070E080E89FE30C94A30F0C9435
:10229000C2100C9446120E941911D8F39923C9F365
:1022A000940F511DA3F39150504094F059F088239E
:1022B00032F0660F771F881F91505040C1F79E3F44
:1022C00051052CF7880F911D9695879597F90895DC
:1022D0005F3FACF0983E9CF0BB278695779567955D
:1022E000B79508F4B1609395C1F7BB0F58F711F497
:1022F00060FFE8CF6F5F7F4F8F4F9F4FE3CF0C940E
:102300003411FA01DC01AA0FBB1F9B01AC01BF57BE
:1023100028F4222733274427507820C0B75190F45F
:10232000AB2F0024469537952795011CA395D2F332
:10233000002071F0220F331F441FB395DAF30ED043
:102340000C94360F61307105A0E88A07B94630F465
:102350009B01AC016627772788279078309621F07B
:10236000208331834283538308950E94C8110C94C3
:1023700000110E94F21038F00E94F91020F095230D
:1023800011F00C94C2100C94C81011240C94341148
:102390000E94111170F3959FC1F3950F50E0551FE6
:1023A000629FF001729FBB27F00DB11D639FAA27AA
:1023B000F00DB11DAA1F649F6627B00DA11D661FF9
:1023C000829F2227B00DA11D621F739FB00DA11D1A
:1023D000621F839FA00D611D221F749F3327A00DD4
:1023E000611D231F849F600D211D822F762F6A2F70
:1023F00011249F5750409AF0F1F088234AF0EE0FD5
:10240000FF1FBB1F661F771F881F91505040A9F701
:102410009E3F510580F00C94C2100C9434115F3F24
:10242000E4F3983ED4F3869577956795B795F7953D
:10243000E7959F5FC1F7FE2B880F911D96958795B5
:1024400097F90895990F0008550FAA0BE0E8FEEFE1
:1024500016161706E807F907C0F012161306E40768
:10246000F50798F0621B730B840B950B39F40A2661
:1024700061F0232B242B252B21F408950A2609F43F
:10248000A140A6958FEF811D811D08959F3F31F0DA
:10249000915020F4879577956795B795880F911D92
:1024A0009695879597F908958F929F92AF92BF92D4
:1024B000CF92DF92EF92FF92CF93DF93EC0168818E
:1024C00079818A819B81611571058105910521F4CE
:1024D00064E279ED8BE597E02DE133EF41E050E0E8
:1024E0000E94D50E49015A019B01AC01A7EAB1E453
:1024F0000E94FA0E6B017C01ACEEB4EFA5019401D1
:102500000E94B312DC01CB018C0D9D1DAE1DBF1DC1
:10251000B7FF03C00197A109B04888839983AA83B4
:10252000BB839F77DF91CF91FF90EF90DF90CF90AB
:10253000BF90AF909F908F9008950E94541208957D
:1025400088E091E00E9454120895B0E0A0E08093EA
:10255000080190930901A0930A01B0930B0108951B
:10256000B7FF0C94FA0E0E94FA0E821B930B08958B
:04257000F894FFCF0D
:102574009A99993E0AD7233D010000002000507229
:102584006F706F7274696E616C00446174610054A1
:102594007261696E696E6700446F6E6500616464A0
:1025A400724E41434B0077725F4E41434B0072655C
:0825B40061644E41434B00003D
:00000001FF
